:100000000C942A000C945F0C0C94880C0C94B10C8A
:100010000C9447000C9447000C94290B0C94D70ABD
:100020000C94000B0C94AE0A0C9487090C945E0996
:100030000C9447000C942D070C9447000C94040773
:100040000C942E0E0C9447000C9447000C9447001F
:100050000C94470011241FBECFE5D8E0DEBFCDBF12
:1000600017E0A0E6B0E0E4E1F8E502C005900D92EB
:10007000A831B107D9F717E0A8E1B7E001C01D9298
:10008000A134B107E1F70E946C2B0C94082C0C945E
:100090000000EF92FF920F931F937B018C0120E0F1
:1000A00030E040E05FE40E94490388238CF0C801FF
:1000B000B70120E030E040E05FE40E94C1010E940F
:1000C00079039B01AC01205030404040504806C0AD
:1000D000C801B7010E9479039B01AC01B901CA01B3
:1000E0001F910F91FF90EF900895A0E0B0E0EBE733
:1000F000F0E00C94C82BDC012B01FA019C919230AA
:1001000008F439C1EB018881823008F433C194309E
:1001100069F4843009F02FC111969C91119789815F
:10012000981709F428C1AAE0B6E025C1843009F483
:1001300021C18230A9F4923009F01DC19A01AD01AC
:1001400088E0EA010990AE01E90109929E0181501F
:10015000C1F7E201898111969C918923818308C1AD
:10016000923009F407C112962D903C901397EB0141
:100170008A819B811496AD90BD90CD90DC901797AD
:10018000EC80FD800E811F819101281B390BB90184
:1001900037FF04C066277727621B730B6032710537
:1001A0000CF061C0121613066CF537014801062EDB
:1001B00004C096948794779467940A94D2F721E0C8
:1001C00030E040E050E004C0220F331F441F551FB1
:1001D0006A95D2F721503040404050402E213F21B7
:1001E00040235123211531054105510521F021E01E
:1001F00030E040E050E079018A01E628F72808293C
:1002000019293CC0232BD1F1260E371E350146019A
:10021000062E04C096948794779467940A94D2F734
:1002200021E030E040E050E004C0220F331F441FC3
:10023000551F6A95D2F721503040404050402A2146
:100240003B214C215D21211531054105510521F04E
:1002500021E030E040E050E059016A01A628B728CB
:10026000C828D9280BC0821593052CF01C01AA249C
:10027000BB24650103C0EE24FF24870111969C91E5
:10028000D20111968C91981709F445C0992339F041
:10029000A80197012A193B094C095D0906C0A6016E
:1002A00095012E193F09400B510B57FD08C01182D3
:1002B0003382228224833583468357831DC081E0A5
:1002C00081833382228288279927DC01821B930B4A
:1002D000A40BB50B84839583A683B7830DC0220F2F
:1002E000331F441F551F24833583468357838281E0
:1002F000938101979383828324813581468157813D
:10030000DA01C9010197A109B1098F5F9F4FAF4F72
:10031000BF4328F30BC0918333822282EA0CFB1C7B
:100320000C1D1D1DE482F5820683178383E0808304
:10033000248135814681578157FF1AC0C901AA27F8
:1003400097FDA095BA2F81709070A070B0705695EF
:10035000479537952795822B932BA42BB52B848318
:100360009583A683B7838281938101969383828349
:10037000DF0101C0D201CD01CDB7DEB7E2E10C94BF
:10038000E42BA0E2B0E0E7ECF1E00C94D42B69831D
:100390007A838B839C832D833E834F835887E9E048
:1003A000EE2EF12CEC0EFD1ECE010196B7010E943F
:1003B0006A058E010F5E1F4FCE010596B8010E949F
:1003C0006A058A8991E089278A8BC701B801AE0145
:1003D000475E5F4F0E9475000E949504A096E6E07C
:1003E0000C94F02BA0E2B0E0E8EFF1E00C94D42BF9
:1003F00069837A838B839C832D833E834F835887C5
:10040000F9E0EF2EF12CEC0EFD1ECE010196B701A6
:100410000E946A058E010F5E1F4FCE010596B8013E
:100420000E946A05C701B801AE01475E5F4F0E9496
:1004300075000E949504A096E6E00C94F02BA0E2D3
:10044000B0E0E5E2F2E00C94C82B69837A838B83F9
:100450009C832D833E834F835887CE010196BE0136
:10046000675F7F4F0E946A05CE010596BE016F5EF1
:100470007F4F0E946A059985923088F08989823081
:10048000C8F0943019F4823051F404C0843029F457
:10049000923081F48AE096E0C6C0923049F420E0C0
:1004A0009A858A89981321E02A87CE010996BBC0D4
:1004B000823049F420E09A858A89981321E02A8BBA
:1004C000CE014196B0C02D843E844F8458886D88FB
:1004D0007E888F88988CEE24FF248701AA24BB2471
:1004E000650140E050E060E070E0E0E0F0E0C10174
:1004F00081709070892BE9F0E60CF71C081D191D1E
:100500009A01AB012A0D3B1D4C1D5D1D80E090E062
:10051000A0E0B0E0E614F7040805190520F481E036
:1005200090E0A0E0B0E0BA01A901480F591F6A1F8E
:100530007B1FAA0CBB1CCC1CDD1C97FE08C081E0F5
:1005400090E0A0E0B0E0A82AB92ACA2ADB2A3196B6
:10055000E032F10549F0660C771C881C991C569412
:10056000479437942794C3CFFA85EA892B893C892D
:100570008B859C85280F391F2E5F3F4F17C0CA01FE
:1005800081709070892B61F016950795F794E79428
:1005900080E090E0A0E0B0E8E82AF92A0A2B1B2BC3
:1005A00076956795579547952F5F3F4F77FDE7CF36
:1005B0000CC0440F551F661F771F17FD4160EE0CDE
:1005C000FF1C001F111F21503040403090E05907A0
:1005D00090E0690790E4790760F32B8F3C8FDB0193
:1005E000CA018F779070A070B07080349105A1051A
:1005F000B10561F447FD0AC0E114F10401051105DC
:1006000029F0405C5F4F6F4F7F4F40781A8EFE1786
:1006100011F081E08A8F4D8F5E8F6F8F78A383E01A
:10062000898FCE0149960E949504A096E2E10C9430
:10063000E42BA8E1B0E0EFE1F3E00C94D42B698364
:100640007A838B839C832D833E834F83588789E0F5
:10065000E82EF12CEC0EFD1ECE010196B7010E9492
:100660006A058E010F5E1F4FCE010596B8010E94EC
:100670006A058985823040F08989823028F0C70177
:10068000B8010E94E20501C081E06896E6E00C94A2
:10069000F02BA8E1B0E0EFE4F3E00C94D42B6983F5
:1006A0007A838B839C832D833E834F83588789E095
:1006B000E82EF12CEC0EFD1ECE010196B7010E9432
:1006C0006A058E010F5E1F4FCE010596B8010E948C
:1006D0006A058985823040F08989823028F0C70117
:1006E000B8010E94E20501C08FEF6896E6E00C9425
:1006F000F02BACE0B0E0EFE7F3E00C94D82B69838B
:100700007A838B839C83CE010196BE016B5F7F4F02
:100710000E946A058D81823061F1823050F184300F
:1007200021F48E81882351F12EC02F81388537FD29
:1007300020C06E812F3131051CF06623F9F023C0F3
:100740008EE190E0821B930B29853A854B855C8571
:1007500004C056954795379527958A95D2F7662315
:10076000B1F050954095309521953F4F4F4F5F4FD9
:100770000EC020E030E040E050E009C02FEF3FEF36
:100780004FEF5FE704C020E030E040E050E8B901FF
:10079000CA012C96E2E00C94F42BA8E0B0E0E3ED63
:1007A000F3E00C94D02B7B018C0161157105810560
:1007B000910519F482E0898360C083E089838EE12A
:1007C000C82ED12CDC82CB82ED82FE820F8318876B
:1007D000C801B7010E944604FC013197F7FF3BC0F6
:1007E000222733272E1B3F0B57016801022E04C01E
:1007F000D694C794B794A7940A94D2F740E050E0F7
:1008000060E070E081E090E0A0E0B0E004C0880F1C
:10081000991FAA1FBB1F2A95D2F70197A109B109F9
:100820008E219F21A023B1230097A105B10521F0BE
:1008300041E050E060E070E04A295B296C297D29A5
:100840004D835E836F8378878EE190E08E1B9F0BD4
:100850009C838B8312C0309781F00E2E04C0EE0C67
:10086000FF1C001F111F0A94D2F7ED82FE820F8336
:100870001887CE1ADF0ADC82CB821A82CE0101965B
:100880000E9495042896EAE00C94EC2BEF92FF92DC
:100890000F931F937B018C0180E0E81680E0F8063F
:1008A00081E0080780E0180788F48FEFE816F1046C
:1008B0000105110531F028F088E090E0A0E0B0E0FB
:1008C00017C080E090E0A0E0B0E012C080E0E81641
:1008D00080E0F80680E0080781E0180728F088E14A
:1008E00090E0A0E0B0E004C080E190E0A0E0B0E0E3
:1008F00020E230E040E050E0281B390B4A0B5B0B54
:1009000004C016950795F794E7948A95D2F7F701F6
:10091000EE5EF94F8081281B310941095109C90157
:100920001F910F91FF90EF900895DF92EF92FF9249
:100930000F931F93FC01E480F58006811781D1801D
:100940008081823048F480E090E0A0E1B0E0E82AC5
:10095000F92A0A2B1B2BA5C0843009F49FC08230D2
:1009600021F4EE24FF24870105C0E114F104010500
:10097000110519F4E0E0F0E096C0628173819FEF09
:10098000623879070CF05BC022E83FEF261B370B7B
:100990002A3131052CF020E030E040E050E02AC060
:1009A000B801A701022E04C0769567955795479523
:1009B0000A94D2F781E090E0A0E0B0E004C0880F94
:1009C000991FAA1FBB1F2A95D2F70197A109B10948
:1009D0008E219F21A023B1230097A105B10521F00D
:1009E00081E090E0A0E0B0E09A01AB01282B392B28
:1009F0004A2B5B2BDA01C9018F779070A070B07021
:100A000080349105A105B10539F427FF09C0205CA8
:100A10003F4F4F4F5F4F04C0215C3F4F4F4F5F4FE1
:100A2000E0E0F0E02030A0E03A07A0E04A07A0E4D0
:100A30005A0710F0E1E0F0E079018A0127C0603840
:100A4000710564F5FB01E158FF4FD801C7018F77AD
:100A50009070A070B07080349105A105B10539F493
:100A6000E7FE0DC080E490E0A0E0B0E004C08FE3BA
:100A700090E0A0E0B0E0E80EF91E0A1F1B1F17FF70
:100A800005C016950795F794E794319687E016957B
:100A90000795F794E7948A95D1F705C0EE24FF24D3
:100AA0008701EFEFF0E06E2F679566276795902F2F
:100AB0009F77D794DD24D7948E2F8695492F462B88
:100AC000582F5D29B701CA011F910F91FF90EF9038
:100AD000DF900895FC01DB01408151812281622F6A
:100AE0006F7770E0221F2227221F9381892F880FA2
:100AF000822B282F30E0991F9927991F11969C93DC
:100B0000119721153105A9F54115510561057105AB
:100B100011F482E037C082E89FEF13969C938E9386
:100B200012979A01AB0167E0220F331F441F551F34
:100B30006A95D1F783E08C930DC0220F331F441FB9
:100B4000551F12968D919C911397019713969C9324
:100B50008E931297203080E0380780E0480780E4C9
:100B6000580758F314962D933D934D935C93179724
:100B700008952F3F310579F441155105610571053F
:100B800019F484E08C93089564FF03C081E08C9392
:100B900012C01C9210C02F57304013963C932E93D6
:100BA000129783E08C9387E0440F551F661F771FD1
:100BB0008A95D1F7706414964D935D936D937C93F1
:100BC000179708951F93DC01FB019C91923008F464
:100BD00047C08081823008F443C0943051F41196AC
:100BE0001C91843099F58181682F70E0611B710937
:100BF0003FC0843021F0923031F48230B9F18181EC
:100C0000882389F12DC011961C9111978230F1F043
:100C100081811817D9F412962D913C9113978281F6
:100C200093818217930794F028173907BCF0149624
:100C30008D919D910D90BC91A02D2481358146818F
:100C40005781281739074A075B0718F4112341F029
:100C50000AC082179307A407B50740F4112319F0BF
:100C600061E070E005C06FEF7FEF02C060E070E010
:100C7000CB011F9108951F93CF93DF939C01162FF3
:100C80000197805A9F4020F0DF91CF911F910895E6
:100C9000220F331F40E050E060E074E284EF90E008
:100CA0000E94A62BE901C90101970E94660A153628
:100CB00050F088E061E042E022E00E94B009DF915C
:100CC000CF911F910895BE0180E090E0212F30E088
:100CD00040E050E00E94732B24E630E040E050E01A
:100CE0000E94A62BDA01C90101970E94600AE1CF98
:100CF0001F93CF93DF939C01162F08978D51944F2C
:100D000020F0DF91CF911F91089522953295307F89
:100D10003227207F322740E050E060E074E284EF29
:100D200090E00E94A62BE901C90101970E94660A82
:100D3000153650F088E062E042E022E00E94B009FF
:100D4000DF91CF911F910895BE0180E090E0212FA7
:100D500030E040E050E00E94732B24E630E040E0B9
:100D600050E00E94A62BDA01C90101970E94600A97
:100D7000E1CF539A549A10BC87E689B986E880BDC2
:100D800008955D9BFECF8CB95E9BFECF5E9A089561
:100D9000FC015F9BFECF8CB180830895DC0120E0D5
:100DA00030E040E050E05F9BFECF8CB18D3091F0A1
:100DB000FD01E20FF31F80832F5F3F4F4F4F5F4FC7
:100DC000233631054105510571F75F9BFECF8CB18C
:100DD0008D30D9F7A20FB31F1C920895569A08952B
:100DE00056980895579A089557980895009721F0B6
:100DF00090931907809318070895009721F0909316
:100E00001B0780931A0708951F920F920FB60F9237
:100E100011242F933F934F935F936F937F938F93FF
:100E20009F93AF93BF93EF93FF93E0911807F091D7
:100E30001907309709F00995FF91EF91BF91AF9194
:100E40009F918F917F916F915F914F913F912F91E2
:100E50000F900FBE0F901F9018951F920F920FB614
:100E60000F9211242F933F934F935F936F937F9330
:100E70008F939F93AF93BF93EF93FF93E0911A07E4
:100E8000F0911B07309709F00995FF91EF91BF9101
:100E9000AF919F918F917F916F915F914F913F9112
:100EA0002F910F900FBE0F901F901895DC01EC91C1
:100EB000EE2371F080E05D9BFECFECB95E9BFECF30
:100EC0005E9A8F5FFD01E80FF11DE081EE2399F737
:100ED000089586B7846086BF86B7806486BF86B76C
:100EE0008D7F86BF86B78E7F86BF88E980B90895DB
:100EF00096B7946096BF96B7906496BF880F82B9F4
:100F0000109886B7806886BF089586B7806286BFCE
:100F100086B7806886BF06B607FEFDCF089586B700
:100F2000806286BF86B7806886BF06B607FEFDCFA3
:100F3000089586B78F7D86BF86B7806186BF86B7E6
:100F4000806886BF0895880F83B9189886B78F7D0B
:100F500086BF86B7806886BF06B607FEFDCF0895B8
:100F6000880F83B9189A86B78F7D86BF86B7806849
:100F700086BF06B607FEFDCF0895FC0186B78064E4
:100F800086BF86B7806886BF06B607FEFDCF83B1F1
:100F90008083089583B986B7806886BF06B607FE4A
:100FA000FDCF089506B607FEFDCF0895FC0186B774
:100FB0008F7B86BF86B7806886BF06B607FEFDCFEB
:100FC00083B180830895882331F583B78F7B83BFF6
:100FD00083B7877F83BF4423A9F583B78F7D83BF02
:100FE00083B78F7E83BF6623D9F1613009F45BC07C
:100FF000623009F462C0633009F470C0643009F4EF
:101000004FC0653009F44CC0663009F47BC06730CE
:1010100009F46EC00895813069F1823059F083304F
:1010200011F783B7806483BF83B7886083BF44238D
:1010300051F5D3CF83B78F7B83BF83B7886083BFDE
:10104000442359F2413009F442C0423011F1433097
:1010500051F683B7806283BF83B7806183BFC3CFFC
:1010600083B78B7F83BF83B78D7F83BF83B78E7F2B
:1010700083BF089583B7806483BF83B7877F83BFAF
:10108000442309F4AACF413021F0423009F0ABCF1C
:10109000E0CF83B7806283BF83B78F7E83BFA3CF48
:1010A00083B78460DFCF83B78B7F83BF83B78D7FA8
:1010B00083BF83B7816083BF089583B78B7F83BF6E
:1010C00083B7826083BF83B78E7F83BF089583B762
:1010D0008F7D83BF83B7806183BF85CF83B78B7FCD
:1010E00083BF83B7826083BF83B7816083BF089566
:1010F00083B7846083BF83B7826083BF83B7816017
:1011000083BF089583B78460DACF82BF08958CBF10
:10111000089589B7816089BF089589B78E7F89BF97
:10112000089589B7826089BF089589B78D7F89BF87
:101130000895009721F090931F0780931E0708954C
:10114000009721F090931D0780931C070895AF929C
:10115000BF92CF92DF92EF92FF920F931F937B018A
:101160008C012CE096958795779567952A95D1F710
:101170000E94CD035B016C01C801B7010E94CD0341
:1011800020E030E040E85BE30E941F02A6019501E9
:101190000E94C10120E030E040E853EC0E941F02B1
:1011A00020E030E040E853E40E94F2010E94490050
:1011B000611571058105910559F062BFC601B50140
:1011C00020E030E040E85FE30E94F2015B016C0147
:1011D000C601B50120E030E040E050E00E94190374
:1011E000882329F1C601B50120E030E040E85FE343
:1011F0000E94C1017B018C0108B600FEFDCF88B7BB
:10120000816088BFC801B70120E030E040E050E0D5
:101210000E941903882359F0C801B70120E030E08B
:1012200040E85FE30E94C1017B018C01E5CF1F9183
:101230000F91FF90EF90DF90CF90BF90AF90089507
:1012400028EE33E040E050E00E94732B9B01AC019C
:10125000DC01CB019F70A070B070FC01892BC9F438
:10126000DA01C9015CE0B695A795979587955A95DF
:10127000D1F7BC0180E082BF6115710549F008B665
:1012800000FEFDCF88B7816088BF61507040B9F71C
:101290000895DA01C9014CE0B695A7959795879511
:1012A0004A95D1F7BC016F5F7F4FF295E295EF70E1
:1012B000EF27FF70EF278E2F8195DDCF1F920F92C2
:1012C0000FB60F9211242F933F934F935F936F9319
:1012D0007F938F939F93AF93BF93EF93FF93E0918F
:1012E0001E07F0911F07309709F00995FF91EF91C4
:1012F000BF91AF919F918F917F916F915F914F912E
:101300003F912F910F900FBE0F901F9018951F9235
:101310000F920FB60F9211242F933F934F935F9329
:101320006F937F938F939F93AF93BF93EF93FF93AD
:10133000E0911C07F0911D07309709F00995FF9186
:10134000EF91BF91AF919F918F917F916F915F913D
:101350004F913F912F910F900FBE0F901F901895B6
:10136000982F683030F48EB5887F8EBD8EB5862B71
:101370008EBD9F30E0F4973009F45BC0983038F1AF
:101380009B3009F493C09C30C8F5993009F45EC0D5
:101390009A3008F47FC08FB58E7F8FBD8FB5826085
:1013A0008FBD8EB5877F8EBD8EB580618EBD44307A
:1013B00038F42295207F4295440F440F407C422B05
:1013C0008FB58F708FBD8FB5482B4FBD089593306B
:1013D00009F466C0943030F59130F1F1923008F4A0
:1013E0004AC08FB58E7F8FBD8FB582608FBD8EB5A1
:1013F000877F8EBD8EB58F7E8EBDD9CF9D30C1F1DA
:101400009D3008F441C09E3091F68FB581608FBD4C
:101410008FB582608FBD8EB588608EBD8EB58061C0
:101420008EBDC5CF9530F1F0963040F18FB58E7FEF
:1014300002C08FB581608FBD8FB582608FBD8EB5C4
:1014400088608EBD8EB58F7E8EBDB1CF8FB5816029
:101450008FBD8FB58D7FA4CF8FB581608FBD8FB5C8
:101460008D7FC4CF8FB581608FBD8FB58D7FE6CF67
:101470008FB58E7FCCCF8FB58E7FF0CF8FB58E7F1F
:101480008FBD8FB58D7FDACF8FB58E7F8FBD8FB536
:101490008D7FC0CF8FB58E7F8FBD8FB58D7F80CF75
:1014A0008FB581608FBD8FB58260A0CF8FB5816011
:1014B00074CF9DBD8CBD08952CB53DB5C90108956F
:1014C0009BBD8ABD089599BD88BD089597BD86BD11
:1014D0000895009721F0909325078093240708959D
:1014E000009721F090932307809322070895009797
:1014F00021F09093210780932007089589B7846095
:1015000089BF089589B78B7F89BF089589B78061A6
:1015100089BF089589B78F7E89BF089589B788608C
:1015200089BF089589B7877F89BF089526B537B5E4
:10153000C9010895813031F0882319F48EB58F7B6D
:101540008EBD08958EB580648EBD089589B7806282
:1015500089BF089589B78F7D89BF08951F920F9223
:101560000FB60F9211242F933F934F935F936F9376
:101570007F938F939F93AF93BF93EF93FF93E091EC
:101580002407F0912507309709F00995FF91EF9115
:10159000BF91AF919F918F917F916F915F914F918B
:1015A0003F912F910F900FBE0F901F9018951F9293
:1015B0000F920FB60F9211242F933F934F935F9387
:1015C0006F937F938F939F93AF93BF93EF93FF930B
:1015D000E0912207F0912307309709F00995FF91D8
:1015E000EF91BF91AF919F918F917F916F915F919B
:1015F0004F913F912F910F900FBE0F901F90189514
:101600001F920F920FB60F9211242F933F934F9377
:101610005F936F937F938F939F93AF93BF93EF935A
:10162000FF93E0912007F0912107309709F0099589
:10163000FF91EF91BF91AF919F918F917F916F91AA
:101640005F914F913F912F910F900FBE0F901F9080
:1016500018951F920F920FB60F9211240F900FBE84
:101660000F901F901895882321F0813021F081E0A0
:1016700008956C9808956C9A80E008956F9A089583
:101680006E9A0895823039F0833011F081E0089528
:101690006D9A80E008956D9880E00895843039F067
:1016A000853011F081E008956B9A80E008956B9881
:1016B00080E00895863039F0873011F081E0089598
:1016C0006A9A80E008956A9880E00895882381F0FE
:1016D000813091F08230D1F08330E9F0843089F0AC
:1016E0008530F1F0863009F1873021F181E00895ED
:1016F0006898699870980895689A6998709880E0D9
:10170000089568986998709A80E008956898699A31
:10171000709880E00895689A699A709880E00895BA
:10172000689A6998709A80E008956898699A709AA2
:1017300080E00895689A699A709A80E008958FB958
:10174000779BFECF8FB108958FB9779BFECF8FB176
:1017500008951F93162F823018F081E01F9108958D
:101760006830D8F78130B1F081E066E041E00E9456
:101770005F0D87E00E945A0B85E00E944E0B83E0CC
:101780000E94420B812F0E94660B80E00E94330B67
:101790006E9AE4CF65E041E00E945F0D81E064E075
:1017A00041E00E945F0D81E067E041E00E945F0D33
:1017B00081E064E041E00E94E20C87E00E945A0B65
:1017C00085E00E944E0B83E00E94420B812F0E9415
:1017D000660B81E00E94330B6E9AC0CF882361F4C0
:1017E0008BB780648BBF613061F16130A8F06230EB
:1017F000B1F1633069F108958130A9F08230D9F7F1
:101800008BB780628BBF623009F442C0633099F7B6
:1018100084B7806484BF089585B78E7F85BF85B700
:101820008D7F85BF08958BB780688BBF6130A1F134
:101830006130E0F485B78B7F85BF85B7877F85BF33
:10184000089585B7816085BF85B78D7F85BF089571
:1018500085B7816085BF85B7826085BF089585B7EC
:101860008E7F85BF85B7826085BF0895623049F05D
:10187000633009F685B7846085BF85B7886085BF0A
:10188000089585B78B7F85BF85B7886085BF08952C
:1018900084B78F7B84BF089585B7846085BF85B783
:1018A000877F85BF08956115710541F0E82FF0E04D
:1018B000EE0FFF1FEA5DF84F7183608308951F925A
:1018C0000F920FB60F9211242F933F934F935F9374
:1018D0006F937F938F939F93AF93BF93EF93FF93F8
:1018E000E0912607F0912707309709F00995FF91BD
:1018F000EF91BF91AF919F918F917F916F915F9188
:101900004F913F912F910F900FBE0F901F90189500
:101910001F920F920FB60F9211242F933F934F9364
:101920005F936F937F938F939F93AF93BF93EF9347
:10193000FF93E0912807F0912907309709F0099566
:10194000FF91EF91BF91AF919F918F917F916F9197
:101950005F914F913F912F910F900FBE0F901F906D
:1019600018951F920F920FB60F9211242F933F9349
:101970004F935F936F937F938F939F93AF93BF9397
:10198000EF93FF93E0912A07F0912B07309709F02E
:101990000995FF91EF91BF91AF919F918F917F91A9
:1019A0006F915F914F913F912F910F900FBE0F90CC
:1019B0001F9018958FB780688FBF08958FB78F7766
:1019C0008FBF0895843020F4683010F4423010F056
:1019D00081E00895413011F1882399F0813009F4B4
:1019E0003CC0823009F452C022B381E090E002C0D2
:1019F000880F991F6A95E2F78095822382BB80E069
:101A000008952BB381E090E002C0880F991F6A957A
:101A1000E2F7809582238BBB80E00895882389F0CC
:101A2000813041F1823009F43EC022B381E090E080
:101A300002C0880F991F6A95E2F7282B22BB80E02D
:101A400008952BB381E090E002C0880F991F6A953A
:101A5000E2F7282B2BBB80E0089528B381E090E0CB
:101A600002C0880F991F6A95E2F78095822388BB90
:101A700080E0089528B381E090E002C0880F991FAC
:101A80006A95E2F7282B28BB80E0089525B381E012
:101A900090E002C0880F991F6A95E2F78095822333
:101AA00085BB80E0089525B381E090E002C0880FF7
:101AB000991F6A95E2F7282B25BB80E008958430B2
:101AC00020F4683010F4423010F081E00895413085
:101AD00011F1882399F0813009F43CC0823009F477
:101AE00052C021B381E090E002C0880F991F6A952F
:101AF000E2F78095822381BB80E008952AB381E0DC
:101B000090E002C0880F991F6A95E2F780958223C2
:101B10008ABB80E00895882389F0813041F18230CA
:101B200009F43EC021B381E090E002C0880F991F04
:101B30006A95E2F7282B21BB80E008952AB381E063
:101B400090E002C0880F991F6A95E2F7282B2ABB04
:101B500080E0089527B381E090E002C0880F991FCC
:101B60006A95E2F78095822387BB80E0089527B3CA
:101B700081E090E002C0880F991F6A95E2F7282B58
:101B800027BB80E0089524B381E090E002C0880F75
:101B9000991F6A95E2F78095822384BB80E00895BF
:101BA00024B381E090E002C0880F991F6A95E2F7A4
:101BB000282B24BB80E008958430A0F4683090F492
:101BC000882391F08130E1F0823031F122B381E05D
:101BD00090E002C0880F991F6A95E2F7282722BB80
:101BE00080E0089581E008952BB381E090E002C089
:101BF000880F991F6A95E2F728272BBB80E008958C
:101C000028B381E090E002C0880F991F6A95E2F73F
:101C1000282728BB80E0089525B381E090E002C02A
:101C2000880F991F6A95E2F7282725BB80E0089561
:101C30003E9A3F983D9A87B1817487B987E886B903
:101C40000895339A089533980895369A0895009721
:101C500021F090932D0780932C0708951F920F92E7
:101C60000FB60F9211242F933F934F935F936F936F
:101C70007F938F939F93AF93BF93EF93FF93E091E5
:101C80002C07F0912D07309709F00995FF91EF91FE
:101C9000BF91AF919F918F917F916F915F914F9184
:101CA0003F912F910F900FBE0F901F9018958EEEC1
:101CB00092E00E94600A08958CED95E00E94600A0F
:101CC000089582E390E065E00E94780683E065E095
:101CD00041E00E945F0D08951F93182F87FD0EC0ED
:101CE0000E9485078FEA0E94A307812F0E94CA07DE
:101CF0000E94990780E49CE90197F1F71F910895EC
:101D00000E94690708950E94250E64B175B180E0B4
:101D100090E028E833E140E050E00E94732BDC01C2
:101D2000CB012AE0B695A795979587952A95D1F787
:101D30006AE070E00E94922B862F08950E94180E90
:101D400080E060E040E00E945F0D0895843050F430
:101D5000683040F4433030F4413031F0442321F016
:101D6000423029F081E008950E94E20C08950E941B
:101D7000DC0D0895843010F4683010F081E008958F
:101D800041E00E945F0D08950F931F93CF93DF935F
:101D90009C01EB018F3F910589F180F180509140CA
:101DA0008F3F910591F088F0C901805092408F3F9C
:101DB000910539F130F1C901805093408F3F910571
:101DC00009F010F5022F14E502C0022F11E50E9460
:101DD0008507812F0E94A307802F0E94CA070E94B7
:101DE0008F07812F0E94B007CE010E94D6070E9464
:101DF0009907DF91CF911F910F910895082F10E55A
:101E0000E6CF022F12E5E3CF10E5E1CFFF920F936B
:101E10001F939C01F62E8F3F910579F170F1805050
:101E200091408F3F910591F088F0C9018050924018
:101E30008F3F910529F120F1C901805093408F3FD8
:101E4000910509F000F5022F14E502C0022F11E5FB
:101E50000E948507812F0E94A307802F0E94CA0736
:101E60008F2D0E94CA070E94990780E49CE9019780
:101E7000F1F71F910F91FF900895082F10E5E8CF1B
:101E8000022F12E5E5CF10E5E3CF82E063E040E00A
:101E90000E94E20C82E064E040E00E94E20C0895BF
:101EA00090E00E94630A82E063E040E00E94E20C5E
:101EB00082E064E041E00E94E20C089590E00E941C
:101EC000630A82E063E041E00E94E20C82E064E0A9
:101ED00040E00E94E20C089582E063E041E00E944D
:101EE0005F0D82E064E041E00E945F0D0895843060
:101EF00050F4683040F4433030F4413031F0442342
:101F000021F0423029F081E008950E94E20C08950A
:101F10000E94DC0D0895843010F4683010F081E0E8
:101F2000089541E00E945F0D089580912E07811170
:101F300008950E94830E8D3148F4853180F410920B
:101F40002F070E94450F80912F07089581E080930D
:101F50002F0787E00E945E0F80912F0708958091E0
:101F60002F078130B1F3882361F308950E949E0EFC
:101F70000E946C0F0895B499FECF86E40E94A40BD2
:101F800080933807813391F0823359F1833309F418
:101F900043C0843309F45CC0853309F475C08234CE
:101FA00009F48EC0863409F49EC00895B499FECF1A
:101FB00086E40E94A40B809338078E3409F4B6C0DF
:101FC000863409F4BCC0843581F780E063E042E0E8
:101FD0000E94A60E80913E0791E0892780933E07DC
:101FE0000895B499FECF86E40E94A40B809338072D
:101FF0008E3409F4ACC0863409F4B2C08435A9F635
:1020000080E064E042E00E94A60E8091400791E0EB
:102010008927809340070895B499FECF86E40E94F3
:10202000A40B809338078E3409F4A2C0863409F4D7
:10203000A8C0843509F0B9CF80E065E042E00E9495
:10204000A60E80913C0791E0892780933C07089574
:10205000B499FECF86E40E94A40B809338078E3497
:1020600009F497C0863409F49DC0843509F09DCFEA
:1020700080E066E042E00E94A60E80913D0791E07C
:10208000892780933D070895B499FECF86E40E9486
:10209000A40B809338078E3409F48CC0863409F47D
:1020A00092C0843509F081CF80E067E042E00E9471
:1020B000A60E80913A0791E0892780933A07089508
:1020C000B499FECF86E40E94A40B809338078E3427
:1020D00009F481C0863409F068CF81E060E040E017
:1020E0000E94770F0895B499FECF86E40E94A40B56
:1020F000809338078E3409F474C0863409F479C0AB
:10210000843509F052CF80913B0791E08927809375
:102110003B0780913B07813009F470C080913B07F9
:10212000882309F042CF0E94450F089580E063E0C4
:1021300041E00E94A60E81E080933E07089580E072
:1021400063E040E00E94A60E10923E07089580E0F2
:1021500064E041E00E94A60E81E08093400708956C
:1021600080E064E040E00E94A60E109240070895CF
:1021700080E065E041E00E94A60E81E080933C078C
:10218000089580E065E040E00E94A60E10923C07B2
:10219000089580E066E041E00E94A60E81E0809311
:1021A0003D07089580E066E040E00E94A60E109290
:1021B0003D07089580E067E041E00E94A60E81E0BF
:1021C00080933A07089580E067E040E00E94A60E01
:1021D00010923A07089581E060E041E00E94770F95
:1021E000089587E090E00E945E0F81E080933B07B6
:1021F00008950E94450F10923B07089587E090E0F4
:102200000E945E0F08950E94DA0C80E063E00E9455
:10221000EE0B80E06BEB7FE00E94530C81E062E00C
:1022200041E00E945F0D80E063E00E94A90B0895E9
:102230000E94950F80933B0708950F931F93DF93A0
:10224000CF930F92CDB7DEB719828E010F5F1F4F6C
:1022500080913907882309F4B3C080E690E00E949A
:10226000560782E197E00E94560780913B0788233A
:1022700009F49DC088E790E00E94560782E197E04C
:102280000E94560780913E07882309F487C087E89B
:1022900090E00E94560782E197E00E9456078091E5
:1022A0004007882309F471C08AE990E00E9456072C
:1022B00082E197E00E94560780913C07882309F449
:1022C0005BC08DEA90E00E94560782E197E00E9491
:1022D000560780913D07882309F445C080EC90E0C3
:1022E0000E94560782E197E00E94560780913A07C4
:1022F000882381F183ED90E00E94560782E197E008
:102300000E94560786EE90E00E94560782E197E011
:102310000E945607C8010E94C8068981803309F0CF
:1023200097CF80E30E94C10682E197E00E945607A2
:102330008EEE90E00E94560782E197E00E945607D9
:1023400080E49CE90197F1F70F90CF91DF911F9105
:102350000F9108958CED90E00E94560782E197E07E
:102360000E945607CFCF89EC90E00E94560782E189
:1023700097E00E945607BACF86EB90E00E9456077E
:1023800082E197E00E945607A4CF83EA90E00E9482
:10239000560782E197E00E9456078ECF80E990E0D1
:1023A0000E94560782E197E00E94560778CF8FE798
:1023B00090E00E94560782E197E00E94560762CFA4
:1023C0008BE690E00E94560782E197E00E94560754
:1023D0004CCFCF92DF92EF92FF920F931F93DF9338
:1023E000CF930F92CDB7DEB719827E010894E11C1E
:1023F000F11C80E4C82E8CE9D82E00E911E083EFAF
:1024000090E00E94560782E197E00E94560788EF0D
:1024100090E00E94560782E197E00E9456078EEFF7
:1024200090E00E94560782E197E00E94560785E0FF
:1024300091E00E94560782E197E00E94560786EEDF
:1024400090E00E94560782E197E00E945607C7017C
:102450000E94C8068981823309F4B7C0833308F02B
:102460003FC0803309F494C0813349F681E30E9470
:10247000C10682E197E00E9456078EE091E00E943B
:10248000560782E197E00E9456070E948D0820E0DF
:1024900030E0C8010197F1F72F5F3F4F83E0283EFE
:1024A0003807B9F787E00E945E0F81E080933B0711
:1024B00062E041E00E94E20CB499FECF86E40E9403
:1024C000A40B80933807B499FECF8EE40E94A40B2E
:1024D0008093380781E062E040E00E94E20C8FCFF9
:1024E000833371F1843309F08ACF84E30E94C106FB
:1024F00082E197E00E9456078AE191E00E94560728
:1025000082E197E00E94560781E062E041E00E948C
:10251000E20CB499FECF86E40E94A40B80933807A6
:10252000B499FECF8DE40E94A40B8093380781E01C
:1025300062E040E00E94E20CC6010197F1F75FCF34
:1025400083E30E94C10682E197E00E94560785E17D
:1025500091E00E94560782E197E00E94560781E0D1
:1025600062E041E00E94E20CB499FECF86E40E9452
:10257000A40B80933807B499FECF84E50E94A40B86
:102580008093380781E062E040E00E94E20CADCF2A
:1025900080E30E94C10682E197E00E9456078EEE1A
:1025A00090E00E94560782E197E00E94560780E47F
:1025B0009CE90197F1F70F90CF91DF911F910F9157
:1025C000FF90EF90DF90CF90089582E30E94C106C4
:1025D00082E197E00E94560781E191E00E94560750
:1025E00082E197E00E9456070E948D0820E030E0CB
:1025F000C8010197F1F72F5F3F4F83E0283E38076E
:10260000B9F70E94450F10923B0781E062E041E07C
:102610000E94E20CB499FECF86E40E94A40B809342
:102620003807B499FECF86E451CF8F929F92AF9234
:10263000BF92CF92DF92EF92FF920F931F93DF939F
:10264000CF93CDB7DEB727970FB6F894DEBF0FBE96
:10265000CDBF7E010894E11CF11C36E0C32ED12CC5
:10266000CC0EDD1E25E0A22EB12CAC0EBD1E97E0D7
:10267000892E912C8C0E9D1E19821A821B821C821F
:102680001D821E821F8281E291E00E9456078EE227
:1026900091E00E9456078BE391E00E94560788E480
:1026A00091E00E94560785E591E00E94560782E678
:1026B00091E00E9456078EE691E00E945607C701FE
:1026C0000E94C8068981833309F40DC2843350F512
:1026D000813309F4B0C3823308F0D7C2803361F686
:1026E00080E30E94C10682E197E00E94560789EECE
:1026F00091E00E94560782E197E00E9456072796D4
:102700000FB6F894DEBF0FBECDBFCF91DF911F9102
:102710000F91FF90EF90DF90CF90BF90AF909F9080
:102720008F900895853309F40BC1853350F18633BA
:1027300009F0A2CF1F8286E30E94C10682E197E0E2
:102740000E94560782E197E00E94560786E292E0D7
:102750000E94560782E197E00E945607C4010E943A
:10276000C8068F810E94C10682E197E00E94560749
:102770008F812EE0829FC0011124805A0E946C0E2E
:102780007BCF84E30E94C10682E197E00E94560756
:102790008AE092E00E94560782E197E00E94560785
:1027A00089E891E00E94560782E197E00E9456076F
:1027B0008DE991E00E94560782E197E00E9456075A
:1027C00082EB91E00E94560782E197E00E94560753
:1027D0008EE691E00E945607C5010E94C8068D81D1
:1027E000813309F47DC0823390F4803369F680E34D
:1027F0000E94C10682E197E00E94560789EE91E0AF
:102800000E94560782E197E00E94560735CF823337
:10281000C1F1833309F0B8CF83E30E94C10682E19E
:1028200097E00E9456078DED91E00E94560782E1E5
:1028300097E00E94560780E066E042E00E94A60E04
:1028400081E062E041E00E94E20CB499FECF84E3B3
:102850000E94A40B80933807B499FECF84E50E94B0
:10286000A40B8093380781E062E040E00E94E20C14
:1028700080913D0790E0882309F491E090933D0713
:1028800083CF82E30E94C10682E197E00E9456074F
:1028900086ED91E00E94560782E197E00E9456077C
:1028A00080E066E040E00E94A60E81E062E041E048
:1028B0000E94E20CB499FECF84E30E94A40B8093A3
:1028C0003807B499FECF86E40E94A40B80933807A2
:1028D00081E062E040E00E94E20C10923D0754CF9C
:1028E00081E30E94C10682E197E00E94560780EDD5
:1028F00091E00E94560782E197E00E94560780E02F
:1029000066E041E00E94A60E81E062E041E00E94A4
:10291000E20CB499FECF84E30E94A40B80933807A5
:10292000B499FECF8EE40E94A40B8093380781E017
:1029300062E040E00E94E20C81E080933D0724CFFA
:1029400085E30E94C10682E197E00E94560788E174
:1029500092E00E94560782E197E00E94560789E8BC
:1029600091E00E94560782E197E00E9456078DE9A8
:1029700091E00E94560782E197E00E94560782EBA1
:1029800091E00E94560782E197E00E9456078EE68A
:1029900091E00E94560782E197E00E945607C60127
:1029A0000E94C8068E81813309F46DC0823318F409
:1029B000803349F61CCF8233B9F1833321F683E3A8
:1029C0000E94C10682E197E00E9456078DED91E0DA
:1029D0000E94560782E197E00E94560780E067E078
:1029E00042E00E94A60E81E062E041E00E94E20C1B
:1029F000B499FECF85E30E94A40B80933807B49965
:102A0000FECF84E50E94A40B8093380781E062E04A
:102A100040E00E94E20C80913A0790E0882309F49C
:102A200091E090933A078FCF82E30E94C10682E142
:102A300097E00E94560786ED91E00E94560782E1DA
:102A400097E00E94560780E067E040E00E94A60EF3
:102A500081E062E041E00E94E20CB499FECF85E3A0
:102A60000E94A40B80933807B499FECF86E40E949D
:102A7000A40B8093380781E062E040E00E94E20C02
:102A800010923A0760CF81E30E94C10682E197E08D
:102A90000E94560780ED91E00E94560782E197E080
:102AA0000E94560780E067E041E00E94A60E81E0A8
:102AB00062E041E00E94E20CB499FECF85E30E94FF
:102AC000A40B80933807B499FECF8EE40E94A40B28
:102AD0008093380781E062E040E00E94E20C81E0F0
:102AE00080933A0730CF83E30E94C1068E010C5FCA
:102AF0001F4F82E197E00E9456078CEF91E00E9401
:102B0000560782E197E00E94560789E891E00E940B
:102B1000560782E197E00E9456078DE991E00E94F6
:102B2000560782E197E00E94560782EB91E00E94EF
:102B3000560782E197E00E9456078EE691E00E94D8
:102B40005607C8010E94C8068C81813309F46DC004
:102B5000823318F4803369F64ACE8233B9F1833375
:102B600041F683E30E94C10682E197E00E94560786
:102B70008DED91E00E94560782E197E00E94560792
:102B800080E065E042E00E94A60E81E062E041E064
:102B90000E94E20CB499FECF83E30E94A40B8093C1
:102BA0003807B499FECF84E50E94A40B80933807C0
:102BB00081E062E040E00E94E20C80913C0790E0FE
:102BC000882309F491E090933C0793CF82E30E941D
:102BD000C10682E197E00E94560786ED91E00E94CF
:102BE000560782E197E00E94560780E065E040E0EA
:102BF0000E94A60E81E062E041E00E94E20CB499DE
:102C0000FECF83E30E94A40B80933807B499FECFD4
:102C100086E40E94A40B8093380781E062E040E0E4
:102C20000E94E20C10923C0764CF81E30E94C1062F
:102C300082E197E00E94560780ED91E00E945607DE
:102C400082E197E00E94560780E065E041E00E9443
:102C5000A60E81E062E041E00E94E20CB499FECF52
:102C600083E30E94A40B80933807B499FECF8EE4CF
:102C70000E94A40B8093380781E062E040E00E944C
:102C8000E20C81E080933C0734CF82E30E94C106CE
:102C90008E010D5F1F4F82E197E00E9456078EEE76
:102CA00091E00E94560782E197E00E94560789E86A
:102CB00091E00E94560782E197E00E9456078DE955
:102CC00091E00E94560782E197E00E94560782EB4E
:102CD00091E00E94560782E197E00E94560785EC3A
:102CE00091E00E94560782E197E00E945607C801D2
:102CF0000E94C8068B81813309F46DC0823318F4B9
:102D0000803349F674CD8233B9F1833321F683E3FE
:102D10000E94C10682E197E00E9456078DED91E086
:102D20000E94560782E197E00E94560780E064E027
:102D300042E00E94A60E81E062E041E00E94E20CC7
:102D4000B499FECF82E30E94A40B80933807B49914
:102D5000FECF84E50E94A40B8093380781E062E0F7
:102D600040E00E94E20C8091400790E0882309F443
:102D700091E0909340078FCF82E30E94C10682E1E9
:102D800097E00E94560786ED91E00E94560782E187
:102D900097E00E94560780E064E040E00E94A60EA3
:102DA00081E062E041E00E94E20CB499FECF82E350
:102DB0000E94A40B80933807B499FECF86E40E944A
:102DC000A40B8093380781E062E040E00E94E20CAF
:102DD0001092400760CF81E30E94C10682E197E034
:102DE0000E94560780ED91E00E94560782E197E02D
:102DF0000E94560780E064E041E00E94A60E81E058
:102E000062E041E00E94E20CB499FECF82E30E94AE
:102E1000A40B80933807B499FECF8EE40E94A40BD4
:102E20008093380781E062E040E00E94E20C81E09C
:102E30008093400730CF81E30E94C1068E010E5F70
:102E40001F4F82E197E00E9456078BE791E00E94B6
:102E5000560782E197E00E94560789E891E00E94B8
:102E6000560782E197E00E9456078DE991E00E94A3
:102E7000560782E197E00E94560782EB91E00E949C
:102E8000560782E197E00E94560785EC91E00E9488
:102E9000560782E197E00E945607C8010E94C806C3
:102EA0008A81813309F46DC0823318F4803349F686
:102EB0009ECC8233B9F1833321F683E30E94C106AD
:102EC00082E197E00E9456078DED91E00E9456073F
:102ED00082E197E00E94560780E063E042E00E94B2
:102EE000A60E81E062E041E00E94E20CB499FECFC0
:102EF00081E30E94A40B80933807B499FECF84E548
:102F00000E94A40B8093380781E062E040E00E94B9
:102F1000E20C80913E0790E0882309F491E09093C1
:102F20003E078FCF82E30E94C10682E197E00E94B4
:102F3000560786ED91E00E94560782E197E00E94D5
:102F4000560780E063E040E00E94A60E81E062E068
:102F500041E00E94E20CB499FECF81E30E94A40BF1
:102F600080933807B499FECF86E40E94A40B809327
:102F7000380781E062E040E00E94E20C10923E07D8
:102F800060CF81E30E94C10682E197E00E9456076C
:102F900080ED91E00E94560782E197E00E9456077B
:102FA00080E063E041E00E94A60E81E062E041E043
:102FB0000E94E20CB499FECF81E30E94A40B80939F
:102FC0003807B499FECF8EE40E94A40B8093380793
:102FD00081E062E040E00E94E20C81E080933E07E5
:102FE00030CF0F931F93DF93CF930F92CDB7DEB700
:102FF00019828E010F5F1F4F8AE492E00E945607EC
:1030000086E592E00E9456078EE592E00E94560700
:103010008EE691E00E945607C8010E94C806898189
:10302000813309F441C08233B8F4803329F780E357
:103030000E94C10682E197E00E94560789EE91E066
:103040000E94560782E197E00E9456070F90CF91A9
:10305000DF911F910F9108958233A1F0833361F6C0
:1030600083E30E94C10682E197E00E9456078EE743
:1030700092E00E94560782E197E00E9456070E9464
:103080001D11BACF82E30E94C10682E197E00E943F
:1030900056078AE792E00E94560782E197E00E9475
:1030A00056070E94E911A8CF81E30E94C10682E180
:1030B00097E00E94560782E792E00E94560782E15D
:1030C00097E00E9456070E94151396CFDF93CF9387
:1030D0000F92CDB7DEB719828FE892E00E945607B3
:1030E00082E197E00E9456078AE992E00E94560723
:1030F00082E197E00E945607CE0101960E94C80621
:103100008981803331F0813321F10F90CF91DF91AC
:10311000089580E30E94C10682E197E00E9456076D
:1031200081EB92E00E94560782E197E00E945607E9
:1031300020E030E040E951E0CA010197F1F72F5F4C
:103140003F4F87E220313807B9F70F90CF91DF91D9
:10315000089581E30E94C10682E197E00E9456072C
:1031600084EA92E00E94560782E197E00E945607A7
:103170000E94242320E030E040E951E0CA01019799
:10318000F1F72F5F3F4F87E220313807B9F70F90F3
:10319000CF91DF9108952F923F924F925F926F925D
:1031A0007F928F929F92AF92BF92CF92DF92EF92D7
:1031B000FF920F931F93DF93CF9300D00F92CDB761
:1031C000DEB719824E010894811C911CA2E0AA2E40
:1031D000B12CAC0EBD1EF8EE6F2EF3E07F2EE4E6B0
:1031E0004E2E512C73E0272E312C2C0E3D1E60E903
:1031F000C62E61E0D62E8CEB92E00E94560782E14B
:1032000097E00E9456078EE691E00E945607C4019F
:103210000E94C8068981803339F0813351F183E6F9
:1032200093E00E945607E7CF80E30E94C10682E147
:1032300097E00E94560789EE91E00E94560782E1CE
:1032400097E00E9456070F900F900F90CF91DF915B
:103250001F910F91FF90EF90DF90CF90BF90AF90B4
:103260009F908F907F906F905F904F903F902F90A6
:10327000089581E30E94C10682E197E00E9456070B
:103280008EEC92E00E94560782E197E00E9456077A
:103290001A821B828CED92E00E945607C5010E94A3
:1032A000C8068A810E94C1068A8190E0C097869DE7
:1032B0008001879D100D969D100D1124C5010E945F
:1032C000C8068A810E94C1068A8190E0C097849DC9
:1032D0007001859DF00C949DF00C1124C5010E9495
:1032E000C8068A810E94C1068A8190E0C0979C012D
:1032F000220F331F220F331F220F331F880F991FF6
:10330000280F391F2E0D3F1D020F131FC5010E94EC
:10331000C8068A810E94C1068A81E82EFF2480EDBA
:103320009FEFE80EF91EE00EF11E82E197E00E9489
:10333000560789EF92E00E94560782E197E00E94CB
:10334000560785E193E00E94560782E197E00E94CC
:103350005607C1010E94C8068B818133F9F0803382
:1033600009F049CF0E94C10682E197E00E9456070A
:1033700081EB92E00E94560782E197E00E94560797
:1033800020E030E040E951E0CA010197F1F72F5FFA
:103390003F4F87E220313807B9F755CF0E94C10669
:1033A00082E197E00E94560782E293E00E9456076E
:1033B00082E197E00E945607C7010E94E42920E0BD
:1033C00030E0F6013197F1F72F5F3F4F97E2203160
:1033D0003907B9F7823061F08B3B09F00CCF81E5FA
:1033E00093E00E94560782E197E00E94560703CFC0
:1033F00084E393E00E94560782E197E00E9456071B
:1034000022CF2F923F924F925F926F927F928F9234
:103410009F92AF92BF92CF92DF92EF92FF920F9363
:103420001F93DF93CF9300D000D0CDB7DEB71982C2
:103430001E010894211C311CB2E08B2E912C8C0EA5
:103440009D1EA8EE6A2EA3E07A2EF4E64F2E512C94
:1034500082E793E00E94560782E197E00E945607B8
:103460008EE691E00E945607C1010E94C80689813C
:10347000803309F471C0813359F781E30E94C1069A
:1034800082E197E00E94560783E893E00E94560786
:1034900082E197E00E9456071A821B821C828DE807
:1034A00093E00E945607C4010E94C8068A810E94C8
:1034B000C1068A8190E0C097869D8001879D100D8E
:1034C000969D100D1124C4010E94C8068A810E9495
:1034D000C1068A8190E0C097849D7001859DF00CA3
:1034E000949DF00C1124C4010E94C8068A810E9498
:1034F000C1068A8190E0C0979C01220F331F220FE2
:10350000331F220F331F880F991F280F391F2E0DCD
:103510003F1D020F131FC4010E94C8068A810E942A
:10352000C1068A81C82EDD2480ED9FEFC80ED91E0A
:10353000C00ED11E82E197E00E945607C6010E948C
:1035400044218B3B79F18EE993E00E94560782E19A
:1035500097E00E9456077CCF80E30E94C10682E17B
:1035600097E00E94560789EE91E00E94560782E19B
:1035700097E00E9456070F900F900F900F90CF91F9
:10358000DF911F910F91FF90EF90DF90CF90BF9050
:10359000AF909F908F907F906F905F904F903F90F3
:1035A0002F90089588EB93E00E945607CE01039672
:1035B0000E94C8068B810E94C1068B8190E0C09753
:1035C000869D8001879D100D969D100D1124CE01C2
:1035D00003960E94C8068B810E94C1068B8190E0F1
:1035E000C097849D7001859DF00C949DF00C112472
:1035F000CE0103960E94C8068B810E94C1068B8172
:1036000090E0C0979C01220F331F220F331F220F1F
:10361000331F880F991F280F391F2E0D3F1D020FD2
:10362000131FCE0103960E94C8068B810E94C1061B
:103630008B81A82EBB2480ED9FEFA80EB91EA00E93
:10364000B11E82E197E00E9456078EEC93E00E9443
:103650005607CE0104960E94C8068C810E94C106BE
:103660008C8190E0C097869D8001879D100D969D6E
:10367000100D1124CE0104960E94C8068C810E9470
:10368000C1068C8190E0C097849D7001859DF00CEF
:10369000949DF00C1124CE0104960E94C8068C81E2
:1036A0000E94C1068C8190E0C0979C01220F331FBD
:1036B000220F331F220F331F880F991F280F391F26
:1036C0002E0D3F1D020F131FCE0104960E94C80647
:1036D0008C810E94C1068C8190E0C097080F191F51
:1036E00082E197E00E945607A016B10649F08EEFDE
:1036F00093E00E94560782E197E00E945607A8CE09
:10370000C601B5010E94C42781EE93E00E945607CE
:1037100082E197E00E9456072ECF7F928F929F9270
:10372000AF92BF92CF92DF92EF92FF920F931F93CF
:10373000DF93CF93CDB7DEB760970FB6F894DEBFB7
:103740000FBECDBF6E010894C11CD11C8BE0A82E0A
:10375000B12CAC0EBD1E06E0802E912C8C0E9D1E51
:1037600010E9E12E11E0F12E77247394D601ECE2FA
:10377000F4E085E001900D928150E1F7D501E1E39D
:10378000F4E086E001900D928150E1F7D401E7E387
:10379000F4E085E001900D928150E1F789E194E039
:1037A0000E94560782E197E00E9456078CE294E05F
:1037B0000E94560782E197E00E94560781E394E059
:1037C0000E94560782E197E00E94560787E394E043
:1037D0000E94560782E197E00E94560781E397E036
:1037E0000E94CE068CE394E00E94560781E397E0A6
:1037F0000E94560782E197E00E945607C40161E3E8
:1038000077E00E94FF2B082FC60161E377E00E945A
:10381000FF2B182FC50161E377E00E94FF2B1123D6
:1038200009F1882309F43FC00023A1F58DE594E058
:103830000E94560782E197E00E94560760960FB6F5
:10384000F894DEBF0FBECDBFCF91DF911F910F91D6
:10385000FF90EF90DF90CF90BF90AF909F908F90B0
:103860007F9008958AE494E00E94560782E197E0F1
:103870000E94560720E030E0C7010197F1F72F5F63
:103880003F4F87E220313807B9F70E945C0E7092F3
:1038900039076CCF86E694E00E94560782E197E0F4
:1038A0000E94560763CF84E594E00E94560782E1A8
:1038B00097E00E94560720E030E0C7010197F1F73A
:1038C0002F5F3F4F87E220313807B9F70E94570E2C
:1038D000109239074BCF2F923F924F925F926F9287
:1038E0007F928F929F92AF92BF92CF92DF92EF9290
:1038F000FF920F931F93DF93CF9300D000D0CDB7EB
:10390000DEB7198202E0402E512C4C0E5D1E18EEDF
:10391000212E13E0312EB3E06B2E712C6C0E7D1E28
:10392000A4E08A2E912C8C0E9D1E1A821B821C8272
:1039300083E794E00E94560782E197E00E945607D1
:103940008EE691E00E945607CE0101960E94C806BD
:103950008981803309F40CC1813339F783E894E01D
:103960000E945607C2010E94C8068A810E94C106B1
:103970008A8190E0C097829D8001839D100D929D69
:10398000100D1124C2010E94C8068A810E94C1063E
:103990008A8190E0C09724E630E0829F7001839F87
:1039A000F00C929FF00C1124C2010E94C8068A817B
:1039B0000E94C1068A8190E0C0979C01220F331FAC
:1039C000220F331F220F331F880F991F280F391F13
:1039D0002E0D3F1D020F131FC2010E94C8068A81CF
:1039E0000E94C1068A81A82EBB2480ED9FEFA80EFD
:1039F000B91EA00EB11E82E197E00E945607C501D4
:103A00000E9452228B3B51F08EE993E00E945607B0
:103A100082E197E00E9456070E946B1C88EB93E0BE
:103A20000E945607C3010E94C8068B810E94C106EE
:103A30008B8190E0C097829D8001839D100D929DA7
:103A4000100D1124C3010E94C8068B810E94C1067B
:103A50008B8190E0C09724E630E0829F7001839FC5
:103A6000F00C929FF00C1124C3010E94C8068B81B8
:103A70000E94C1068B8190E0C0979C01220F331FEA
:103A8000220F331F220F331F880F991F280F391F52
:103A90002E0D3F1D020F131FC3010E94C8068B810C
:103AA0000E94C1068B81C82EDD2480ED9FEFC80ED9
:103AB000D91EC00ED11E82E197E00E9456078EECFF
:103AC00093E00E945607C4010E94C8068C810E94A0
:103AD000C1068C8190E0C097829D8001839D100D6E
:103AE000929D100D1124C4010E94C8068C810E9471
:103AF000C1068C8190E0C09724E630E0829F70017F
:103B0000839FF00C929FF00C1124C4010E94C80600
:103B10008C810E94C1068C8190E0C0979C01220F8D
:103B2000331F220F331F220F331F880F991F280FB7
:103B3000391F2E0D3F1D020F131FC4010E94C8061E
:103B40008C810E94C1068C8190E0C097080F191FDC
:103B500082E197E00E945607C016D10679F18EEFF8
:103B600093E00E94560782E197E00E945607DDCE5F
:103B700080E30E94C10682E197E00E94560789EE29
:103B800091E00E94560782E197E00E9456070F904D
:103B90000F900F900F90CF91DF911F910F91FF9099
:103BA000EF90DF90CF90BF90AF909F908F907F90DD
:103BB0006F905F904F903F902F900895C501B60190
:103BC0000E944D2589E994E00E94560782E197E022
:103BD0000E945607AACE0E9469070E94B9060E9459
:103BE000610E80E063E00E94BA0E80E064E00E9413
:103BF000BA0E80E065E00E94BA0E80E066E00E94A6
:103C0000BA0E80E067E00E94BA0E81E060E00E9498
:103C10008B0F80E00E946C0E0E94B60F80E065E082
:103C200040E00E94E30788E191E10E94990808952D
:103C3000CF92DF92EF92FF920F931F93DF93CF9378
:103C400000D0CDB7DEB719827E010894E11CF11CCB
:103C500082E0C82ED12CCC0EDD1E00E911E082E7F7
:103C600093E00E94560787EB94E00E9456078BEC86
:103C700094E00E9456078EE691E00E945607C70125
:103C80000E94C8068981813309F47CC08233E0F444
:103C9000803329F780E30E94C10682E197E00E9409
:103CA000560789EE91E00E94560782E197E00E9454
:103CB00056070F900F90CF91DF911F910F91FF90BA
:103CC000EF90DF90CF900895823309F449C0833399
:103CD00031F683E30E94C10682E197E00E94560715
:103CE00084E095E00E94560782E197E00E94560723
:103CF0001A828FE892E00E94560782E197E00E94C4
:103D000056078AE992E00E94560782E197E00E94F6
:103D10005607C6010E94C8068A81803309F444C050
:103D2000813309F09CCF81E30E94C10682E197E0D4
:103D30000E94560784EA92E00E94560782E197E0CB
:103D40000E9456070E94242320E030E0C80101971A
:103D5000F1F72F5F3F4F87E220313807B9F77FCF68
:103D600082E30E94C10682E197E00E94560781EF3C
:103D700094E00E94560782E197E00E9456070E9455
:103D8000CB186DCF81E30E94C10682E197E00E94CB
:103D9000560784EE94E00E94560782E197E00E9465
:103DA00056070E94011A5BCF80E30E94C10682E1A0
:103DB00097E00E94560781EB92E00E94560782E14D
:103DC00097E00E94560720E030E0C8010197F1F724
:103DD0002F5F3F4F87E220313807B9F740CF0F936D
:103DE0001F93DF93CF930F92CDB7DEB719828E0169
:103DF0000F5F1F4F0E94950F8CE195E00E945607C0
:103E000082E197E00E94560782E395E00E94560700
:103E100082E197E00E94560780E495E00E945607F1
:103E200082E197E00E9456078BE495E00E945607D6
:103E300082E197E00E945607C8010E94C806898166
:103E4000813309F470C0823308F054C0803391F696
:103E500080E30E94C10682E197E00E94560788E550
:103E600095E00E94560720E030E040E951E0CA01A9
:103E70000197F1F72F5F3F4F83E0283E3807B9F7EE
:103E80008EE20E94C10620E030E040E951E0CA0124
:103E90000197F1F72F5F3F4F83E0283E3807B9F7CE
:103EA0008EE20E94C10620E030E040E951E0CA0104
:103EB0000197F1F72F5F3F4F83E0283E3807B9F7AE
:103EC0008EE20E94C10620E030E040E951E0CA01E4
:103ED0000197F1F72F5F3F4F83E0283E3807B9F78E
:103EE00082E197E00E9456070F90CF91DF911F91DA
:103EF0000F910895823369F0833309F07BCF83E318
:103F00000E94C10682E197E00E9456070E948D1B25
:103F100071CF82E30E94C10682E197E00E945607BA
:103F20000E94F11767CF81E30E94C10682E197E00A
:103F30000E9456070E94181E5DCF6F927F929F923B
:103F4000AF92BF92CF92DF92EF92FF920F931F93A7
:103F5000DF93CF930F92CDB7DEB7198283E894E059
:103F60000E94560708EE13E0AA24BB24EE24FF2487
:103F70003E010894611C711CC3010E94C80689811E
:103F80000E94C106898190E0C0979C01029FC001F8
:103F9000039F900D129F900D1124A80EB91EC80109
:103FA0006AE070E00E94922B8B010894E11CF11CE6
:103FB00034E0E316F10401F782E197E00E9456072E
:103FC000C5010E945222982E88EB93E00E9456076A
:103FD00008EE13E0CC24DD24EE24FF24C3010E946C
:103FE000C80689810E94C106898190E0C0979C0122
:103FF000029FC001039F900D129F900D1124C80EC7
:10400000D91EC8016AE070E00E94922B8B010894CF
:10401000E11CF11C34E0E316F10401F782E197E0C2
:104020000E945607C501B6010E94DB269BEB99163C
:10403000F9F0883509F44EC083E08093170787ECC8
:1040400095E00E94560782E197E00E9456070E9481
:10405000EF1E0F90CF91DF911F910F91FF90EF9086
:10406000DF90CF90BF90AF909F907F906F9008951A
:1040700084E695E00E94560782E197E00E94560789
:1040800080911707815080931707882309F066C035
:104090008AE795E00E94560781E062E041E00E94D5
:1040A000E20CB499FECF82E40E94A40B80933807FF
:1040B000B499FECF8EE40E94A40B8093380781E070
:1040C00062E040E00E94E20C81E060E041E00E949A
:1040D000770FFACF89EA95E00E94560782E197E0D0
:1040E0000E945607809117078150809317078823F5
:1040F00009F044C08AE795E00E94560782E197E004
:104100000E94560781E062E041E00E94E20CB4990F
:10411000FECF82E40E94A40B80933807B499FECFAF
:104120008EE40E94A40B8093380781E062E040E0B7
:104130000E94E20C81E060E041E00E94770F81E0A4
:1041400062E041E00E94E20CB499FECF82E40E945A
:10415000A40B80933807B499FECFE2CF8CE995E0A9
:104160000E94560780911707805D0E94C10682E178
:1041700097E00E9456070E949D1F6BCF8BEB95E046
:104180000E94560782E197E0EBCF0F931F93DF93D6
:10419000CF930F92CDB7DEB719828E010F5F1F4FFD
:1041A00087EC95E00E9456078BED95E00E9456073C
:1041B00082E197E00E94560787EE95E00E9456073D
:1041C00082E197E00E94560786EF95E00E9456072D
:1041D00082E197E00E945607C8010E94C8068981C3
:1041E0008233C1F0833361F08133D1F681E30E94E1
:1041F000C10682E197E00E9456070E949D1FD0CF22
:1042000083E30E94C10682E197E00E9456070E9464
:104210001D11C6CF82E30E94C10682E197E00E9491
:1042200056070E946B1CBCCFAF92BF92CF92DF9219
:10423000FF920F931F93DF93CF930F92CDB7DEB70B
:104240005C01198200E610E0FF246E010894C11C95
:10425000D11CC801B6010E94C40E89818F3F09F0AC
:10426000F394085F1F4F81E00032180791F7F501C2
:10427000F0820F90CF91DF911F910F91FF90DF900F
:10428000CF90BF90AF9008956F927F928F929F9240
:10429000AF92BF92CF92DF92FF920F931F93DF9363
:1042A000CF93CDB7DEB728970FB6F894DEBF0FBE19
:1042B000CDBF9C010097B9F043E08E010B5F1F4F0B
:1042C000F801E40FF11DC9016AE070E00E94922B31
:1042D0008083C9016AE070E00E94922B9B014150EB
:1042E0006115710569F7FF2400E610E06E0108947E
:1042F000C11CD11C32E0A32EB12CAC0EBD1E23E09C
:10430000822E912C8C0E9D1E94E0692E712C6C0EC9
:104310007D1EF394C801B6010E94C40E99818D815F
:10432000981781F5C8010196B5010E94C40E9A81C3
:104330008E81981739F5C8010296B4010E94C40E07
:104340009B818F819817F1F4C8010396B3010E94F5
:10435000C40E9C8188859817A9F48F2D28960FB6D6
:10436000F894DEBF0FBECDBFCF91DF911F910F91AB
:10437000FF90DF90CF90BF90AF909F908F907F90F5
:104380006F900895085F1F4F88E1F81611F68BEBC8
:10439000F82EE3CFCF92DF92EF92FF921F93DF933D
:1043A000CF930F92CDB7DEB76C01198280E090E019
:1043B0007E010894E11CF11CB7010E94C40E10E0BC
:1043C00089818F3F09F011E088E090E0B7010E94F9
:1043D000C40E89818F3F09F01F5F80E190E0B70133
:1043E0000E94C40E89818F3F09F01F5F88E190E031
:1043F000B7010E94C40E89818F3F09F01F5F80E2E0
:1044000090E0B7010E94C40E89818F3F09F01F5FC1
:1044100088E290E0B7010E94C40E89818F3F09F0C5
:104420001F5F80E390E0B7010E94C40E89818F3F37
:1044300009F01F5F88E390E0B7010E94C40E8981F4
:104440008F3F09F01F5F80E490E0B7010E94C40E27
:1044500089818F3F09F01F5F88E490E0B7010E94D7
:10446000C40E89818F3F09F01F5F80E590E0B7019E
:104470000E94C40E89818F3F09F01F5F88E590E09C
:10448000B7010E94C40E89818F3F09F01F5FF601BA
:1044900010830F90CF91DF911F91FF90EF90DF90ED
:1044A000CF9008956F927F928F929F92AF92BF921A
:1044B000CF92DF92FF920F931F93DF93CF93CDB7ED
:1044C000DEB728970FB6F894DEBF0FBECDBF9C01B4
:1044D0000097B9F043E08E010B5F1F4FF801E40F26
:1044E000F11DC9016AE070E00E94922B8083C9012E
:1044F0006AE070E00E94922B9B01415061157105AA
:1045000069F7FF2400E010E06E010894C11CD11C83
:1045100072E0A72EB12CAC0EBD1E63E0862E912C4E
:104520008C0E9D1E54E0652E712C6C0E7D1EF39436
:10453000C801B6010E94C40E99818D81981781F53A
:10454000C8010196B5010E94C40E9A818E81981708
:1045500039F5C8010296B4010E94C40E9B818F8177
:104560009817F1F4C8010396B3010E94C40E9C8110
:1045700088859817A9F48F2D28960FB6F894DEBF7A
:104580000FBECDBFCF91DF911F910F91FF90DF90B4
:10459000CF90BF90AF909F908F907F906F90089535
:1045A000085F1F4F8CE0F81611F64BEBF42EE3CFAB
:1045B000EF92FF920F931F93CF93DF9380E090E0F1
:1045C000C0E0D0E08C010F5F1F4F6FEF0E94060F1D
:1045D00078010894E11CF11CC8016FEF0E94060FDE
:1045E00087010F5F1F4FC7016FEF0E94060F780111
:1045F0000894E11CF11CC8016FEF0E94060F8701AF
:104600000F5F1F4FC7016FEF0E94060F78010894DC
:10461000E11CF11CC8016FEF0E94060FC7016FEF8C
:104620000E94060FC70101966FEF0E94060F2896A1
:10463000CE0124E0C030D20729F6DF91CF911F913F
:104640000F91FF90EF900895EF92FF920F931F93B9
:10465000CF93DF9380E690E0C0E6D0E08C010F5F5F
:104660001F4F6FEF0E94060F78010894E11CF11CA8
:10467000C8016FEF0E94060F87010F5F1F4FC70130
:104680006FEF0E94060F78010894E11CF11CC8012D
:104690006FEF0E94060F87010F5F1F4FC7016FEF7B
:1046A0000E94060F78010894E11CF11CC8016FEF0D
:1046B0000E94060FC7016FEF0E94060FC701019607
:1046C0006FEF0E94060F2896CE0121E0C032D2077C
:1046D00029F6DF91CF911F910F91FF90EF900895F0
:1046E0004F925F926F927F928F929F92AF92BF9202
:1046F000CF92DF92EF92FF920F931F93DF93CF93AE
:10470000CDB7DEB761970FB6F894DEBF0FBECDBF51
:104710009C010097B9F043E08E010A5F1F4FF8013A
:10472000E40FF11DC9016AE070E00E94922B8083C2
:10473000C9016AE070E00E94922B9B014150611513
:10474000710569F73AE0432E512C4C0E5D1E88E04E
:10475000F20111928A95E9F7EE2400E010E022E0E0
:10476000A22EB12CAC0EBD1E93E0892E912C8C0E86
:104770009D1E82E0C82ED12CCA0CDB1CB5E06B2E2E
:10478000712C6C0E7D1EE394C801B5010E94C40E0D
:104790009A818E81981709F038C1C8010196B40139
:1047A0000E94C40E9B818F81981709F02EC1C80109
:1047B0000296B6010E94C40E9C818885981709F064
:1047C00024C1C8010396B3010E94C40E9D8189854E
:1047D000981709F01AC1198280E090E08E010F5FEE
:1047E0001F4FB8010E94C40EFF2489818F3F11F032
:1047F000FF24F39488E090E0B8010E94C40E898100
:104800008F3F09F0F39480E190E0B8010E94C40E5C
:1048100089818F3F09F0F39488E190E0B8010E940C
:10482000C40E89818F3F09F0F39480E290E0B801D3
:104830000E94C40E89818F3F09F0F39488E290E0D2
:10484000B8010E94C40E89818F3F09F0F39480E380
:1048500090E0B8010E94C40E89818F3F09F0F39463
:1048600088E390E0B8010E94C40E89818F3F09F06F
:10487000F39480E490E0B8010E94C40E89818F3FD8
:1048800009F0F39488E490E0B8010E94C40E898195
:104890008F3F09F0F39480E590E0B8010E94C40EC8
:1048A00089818F3F09F0F39488E590E0B8010E9478
:1048B000C40E89818F3F09F0F3948E2D81508C3086
:1048C00008F0D3C0CF2CDD24CC0CDD1CCC0CDD1CBF
:1048D000CC0CDD1C860108501040EF1409F49EC07A
:1048E000C801B2010E94C40EC8016FEF0E94060FFA
:1048F000860107501040C801BE01655F7F4F0E94CE
:10490000C40EC8016FEF0E94060F860106501040CA
:10491000C801BE01645F7F4F0E94C40EC8016FEFE3
:104920000E94060F860105501040C801BE01635F5A
:104930007F4F0E94C40EC8016FEF0E94060F8601D0
:1049400004501040C801BE01625F7F4F0E94C40E38
:10495000C8016FEF0E94060F860103501040C80186
:10496000BE01615F7F4F0E94C40EC8016FEF0E94BD
:10497000060F860102501040C801BE01605F7F4FE4
:104980000E94C40EC8016FEF0E94060F86010150FD
:104990001040C801BE016F5E7F4F0E94C40EC80167
:1049A0006FEF0E94060F0E2D10E0000F111F000F79
:1049B000111F000F111FC80108976A850E94060F7A
:1049C000C80107976B850E94060FC80106976C8582
:1049D0000E94060FC80105976D850E94060FC80149
:1049E00004976E850E94060FC80103976F850E9489
:1049F000060FC801029768890E94060FC801019737
:104A000069890E94060F82E031C0085F1F4FFCE0F9
:104A1000EF1609F0B8CEABEBEA2EDDCEC8016FEF92
:104A20000E94060FC60107976FEF0E94060FC6018E
:104A300006976FEF0E94060FC60105976FEF0E9461
:104A4000060FC60104976FEF0E94060FC601039779
:104A50006FEF0E94060FC60102976FEF0E94060FCC
:104A6000C60101976FEF0E94060F8BEB61960FB6A0
:104A7000F894DEBF0FBECDBFCF91DF911F910F9194
:104A8000FF90EF90DF90CF90BF90AF909F908F906E
:104A90007F906F905F904F9008952F923F924F922A
:104AA0005F926F927F928F929F92AF92BF92CF92BE
:104AB000DF92EF92FF920F931F93DF93CF93CDB7C7
:104AC000DEB729970FB6F894DEBF0FBECDBF4C01FD
:104AD0001B010097C1F09C0143E08E010A5F1F4F4C
:104AE000F801E40FF11DC9016AE070E00E94922B09
:104AF0008083C9016AE070E00E94922B9B014150C3
:104B00006115710569F7CC2400E010E0A2E04A2E9F
:104B1000512C4C0E5D1EF3E0AF2EB12CAC0EBD1E21
:104B2000E2E0EE2EF12CE40CF51C75E0672E712C02
:104B30006C0E7D1EC394C801B2010E94C40E9A81FE
:104B40008E81981709F0BCC0C8010196B5010E947A
:104B5000C40E9B818F81981709F0B2C0C8010296DC
:104B6000B7010E94C40E9C818885981709F0A8C0DF
:104B7000C8010396B3010E94C40E9D8189859817D0
:104B800009F09EC0198280E090E08E010F5F1F4FF8
:104B9000B8010E94C40EBB2489818F3F11F0BB2451
:104BA000B39488E090E0B8010E94C40E89818F3FE1
:104BB00009F0B39480E190E0B8010E94C40E8981AD
:104BC0008F3F09F0B39488E190E0B8010E94C40ED1
:104BD00089818F3F09F0B39480E290E0B8010E9490
:104BE000C40E89818F3F09F0B39488E290E0B80148
:104BF0000E94C40E89818F3F09F0B39480E390E056
:104C0000B8010E94C40E89818F3F09F0B39488E3F4
:104C100090E0B8010E94C40E89818F3F09F0B394DF
:104C200080E490E0B8010E94C40E89818F3F09F0B2
:104C3000B39488E490E0B8010E94C40E89818F3F4C
:104C400009F0B39480E590E0B8010E94C40E898118
:104C50008F3F09F0B39488E590E0B8010E94C40E3C
:104C600089818F3F21F0B3948CE0B81691F1C40193
:104C7000885E93408852934270F5C101885E9340EC
:104C80008852934240F58BEBC81639F18CEC29968B
:104C90000FB6F894DEBF0FBECDBFCF91DF911F914D
:104CA0000F91FF90EF90DF90CF90BF90AF909F90CB
:104CB0008F907F906F905F904F903F902F900895CE
:104CC000085F1F4F2CE0C21609F034CF6BEBC62EE5
:104CD00059CF8EEDDCCF8FEFDACF81149104B9F08C
:104CE00043E08E010A5F1F4FF801E40FF11DC4017C
:104CF0006AE070E00E94922B8083C4016AE070E059
:104D00000E94922B4B0141506115710569F72114E6
:104D10003104A1F043E0F201E40FF11DC1016AE0AA
:104D200070E00E94922B8083C1016AE070E00E94D3
:104D3000922B1B0141506115710569F70B2D10E095
:104D4000000F111F000F111F000F111F7801089491
:104D5000E11CF11CC8016E810E94060F67010894D6
:104D6000C11CD11CC7016F810E94060FC601688556
:104D70000E94060FC601019669850E94060FC801B0
:104D800004966A810E94060F46E0E42EF12CE00EA4
:104D9000F11E0B5F1F4FC8016B810E94060FC701F8
:104DA0006C810E94060FC80102966D810E94060F59
:104DB0008B2D8F5F6CCF4F925F926F927F928F920D
:104DC0009F92AF92BF92DF92EF92FF920F931F9349
:104DD000DF93CF93CDB7DEB760970FB6F894DEBF01
:104DE0000FBECDBF9C017B010097B9F043E08E015F
:104DF000035F1F4FF801E40FF11DC9016AE070E085
:104E00000E94922B8083C9016AE070E00E94922B7D
:104E10009B0141506115710569F7DD2400E010E048
:104E200039E0A32EB12CAC0EBD1E2AE0822E912CAF
:104E30008C0E9D1E9BE0692E712C6C0E7D1E8CE0ED
:104E4000482E512C4C0E5D1ED394C801B5010E9412
:104E5000C40E99858D85981709F089C0C8010196FF
:104E6000B4010E94C40E9A858E85981709F07FC000
:104E7000C8010296B3010E94C40E9B858F859817C6
:104E800009F075C0C8010396B2010E94C40E9C854A
:104E90008889981709F06BC0E114F104B9F043E078
:104EA0008E010F5F1F4FF801E40FF11DC7016AE08B
:104EB00070E00E94922B8083C7016AE070E00E943C
:104EC000922B7B0141506115710569F78D2D815041
:104ED0008C3008F055C00D2D10E0000F111F000F91
:104EE000111F000F111FC8010497BE016B5F7F4F98
:104EF0000E94C40E9D818981981709F043C0C801A2
:104F00000397BE016A5F7F4F0E94C40E9E818A8113
:104F10009817C1F5C8010297BE01695F7F4F0E94D3
:104F2000C40E9F818B81981769F5C8010197BE0156
:104F3000685F7F4F0E94C40E98858C81981711F589
:104F40008DE460960FB6F894DEBF0FBECDBFCF9153
:104F5000DF911F910F91FF90EF90DF90BF90AF9086
:104F60009F908F907F906F905F904F900895085F13
:104F70001F4F8CE0D81609F067CF1BEBD12E8CCFDA
:104F80008BEBDFCF88E5DDCF2F923F924F925F9280
:104F90006F927F928F929F92AF92BF92CF92DF9249
:104FA000EF92FF920F931F93DF93CF93CDB7DEB7AE
:104FB00029970FB6F894DEBF0FBECDBF4C011B0181
:104FC0000097C1F09C0143E08E010A5F1F4FF8017A
:104FD000E40FF11DC9016AE070E00E94922B80830A
:104FE000C9016AE070E00E94922B9B01415061155B
:104FF000710569F7CC2400E610E0A2E04A2E512C9E
:105000004C0E5D1EF3E0AF2EB12CAC0EBD1EE2E0E7
:10501000EE2EF12CE40CF51C75E0672E712C6C0E55
:105020007D1EC394C801B2010E94C40E9A818E8174
:10503000981709F060C0C8010196B5010E94C40E1E
:105040009B818F81981709F056C0C8010296B7015D
:105050000E94C40E9C818885981709F04CC0C80135
:105060000396B3010E94C40E9D818985981709F0AB
:1050700042C0198200E610E0BB247E010894E11CC6
:10508000F11CC801B7010E94C40E89818F3F09F04D
:10509000B394085F1F4F81E00032180791F727E1B2
:1050A0002B15A0F1C401885E93408852934260F5AD
:1050B000C101885E93408852934230F58BEBC8164D
:1050C00039F18CEC29960FB6F894DEBF0FBECDBF38
:1050D000CF91DF911F910F91FF90EF90DF90CF90D4
:1050E000BF90AF909F908F907F906F905F904F9008
:1050F0003F902F900895085F1F4F28E1C21609F0D6
:1051000090CF6BEBC62EB5CF8FEFDCCF8EEDDACF25
:1051100081149104B9F043E08E010A5F1F4FF8013A
:10512000E40FF11DC4016AE070E00E94922B8083BD
:10513000C4016AE070E00E94922B4B01415061155E
:10514000710569F721143104A1F043E0F201E40F85
:10515000F11DC1016AE070E00E94922B8083C101C1
:105160006AE070E00E94922B1B01415061157105AD
:1051700069F70B2D10E0045F1F4F000F111F000F88
:10518000111F000F111F78010894E11CF11CC801C8
:105190006E810E94060F67010894C11CD11CC701D3
:1051A0006F810E94060FC60168850E94060FC60126
:1051B000019669850E94060FC80104966A810E94C3
:1051C000060F46E0E42EF12CE00EF11E0B5F1F4FA0
:1051D000C8016B810E94060FC7016C810E94060FF7
:1051E000C80102966D810E94060F8B2D8F5F6ACFDA
:1051F0004F925F926F927F928F929F92AF92BF92E7
:10520000DF92EF92FF920F931F93DF93CF93CDB76F
:10521000DEB760970FB6F894DEBF0FBECDBF9C011E
:105220007B010097B9F043E08E01035F1F4FF80147
:10523000E40FF11DC9016AE070E00E94922B8083A7
:10524000C9016AE070E00E94922B9B0141506115F8
:10525000710569F7DD2400E610E039E0A32EB12CDA
:10526000AC0EBD1E2AE0822E912C8C0E9D1E9BE062
:10527000692E712C6C0E7D1E8CE0482E512C4C0E2C
:105280005D1ED394C801B5010E94C40E99858D8519
:10529000981709F08CC0C8010196B4010E94C40E91
:1052A0009A858E85981709F082C0C8010296B301CD
:1052B0000E94C40E9B858F85981709F078C0C8019D
:1052C0000396B2010E94C40E9C858889981709F044
:1052D0006EC0E114F104B9F043E08E010F5F1F4F7F
:1052E000F801E40FF11DC7016AE070E00E94922B03
:1052F0008083C7016AE070E00E94922B7B014150DD
:105300006115710569F78D2D8150883108F058C0FD
:105310000D2D10E0000F111F000F111F000F111FA6
:10532000045A1F4FC801BE016B5F7F4F0E94C40E1D
:105330009D818981981709F045C00F5F1F4FC801F3
:10534000BE016A5F7F4F0E94C40E9E818A819817BA
:10535000C9F50F5F1F4FC801BE01695F7F4F0E94F3
:10536000C40E9F818B81981769F5C8010196BE0113
:10537000685F7F4F0E94C40E98858C81981711F545
:105380008DE460960FB6F894DEBF0FBECDBFCF910F
:10539000DF911F910F91FF90EF90DF90BF90AF9042
:1053A0009F908F907F906F905F904F900895085FCF
:1053B0001F4F88E1D81609F064CF1BEBD12E89CF9F
:1053C0008BEBDFCF88E5DDCF4F925F926F927F92BC
:1053D0008F929F92AF92BF92CF92DF92EF92FF9205
:1053E0000F931F93DF93CF93CDB7DEB761970FB6BF
:1053F000F894DEBF0FBECDBF9C010097B9F043E02B
:105400008E010A5F1F4FF801E40FF11DC9016AE028
:1054100070E00E94922B8083C9016AE070E00E94D4
:10542000922B9B0141506115710569F7BAE04B2E33
:10543000512C4C0E5D1E88E0F20111928A95E9F71D
:10544000EE2400E610E0A2E0AA2EB12CAC0EBD1EA8
:10545000F3E08F2E912C8C0E9D1EE2E0CE2ED12CEF
:10546000CA0CDB1C75E0672E712C6C0E7D1EE3945C
:10547000C801B5010E94C40E9A818E81981709F067
:10548000F1C0C8010196B4010E94C40E9B818F81B6
:10549000981709F0E7C0C8010296B6010E94C40E31
:1054A0009C818885981709F0DDC0C8010396B30177
:1054B0000E94C40E9D818985981709F0D3C0198276
:1054C00000E610E0FF246E010894C11CD11CC80145
:1054D000B6010E94C40E89818F3F09F0F394085FE2
:1054E0001F4F81E00032180791F78E2D81508831CF
:1054F00008F0C1C00F2D10E0000F111F000F111F89
:10550000000F111F085A1F4FEF1409F4B6C0C8014D
:10551000B2010E94C40EC8016FEF0E94060F0F5F18
:105520001F4FC801BE01655F7F4F0E94C40EC801B6
:105530006FEF0E94060F0F5F1F4FC801BE01645F2F
:105540007F4F0E94C40EC8016FEF0E94060F0F5FCD
:105550001F4FC801BE01635F7F4F0E94C40EC80188
:105560006FEF0E94060F0F5F1F4FC801BE01625F01
:105570007F4F0E94C40EC8016FEF0E94060F0F5F9D
:105580001F4FC801BE01615F7F4F0E94C40EC8015A
:105590006FEF0E94060F0F5F1F4FC801BE01605FD3
:1055A0007F4F0E94C40EC8016FEF0E94060F0F5F6D
:1055B0001F4FC801BE016F5E7F4F0E94C40EC8011D
:1055C0006FEF0E94060F0E2D10E0000F111F000F4D
:1055D000111F000F111F085A1F4FC8016A850E9432
:1055E000060F0F5F1F4FC8016B850E94060F0F5FEC
:1055F0001F4FC8016C850E94060F0F5F1F4FC80127
:105600006D850E94060F0F5F1F4FC8016E850E94B7
:10561000060F0F5F1F4FC8016F850E94060F0F5FB7
:105620001F4FC80168890E94060FC8010196698949
:105630000E94060F82E061960FB6F894DEBF0FBE9F
:10564000CDBFCF91DF911F910F91FF90EF90DF9031
:10565000CF90BF90AF909F908F907F906F905F9012
:105660004F900895085F1F4FF8E1EF1609F0FFCE45
:105670006BEBE62E24CF8BEBDECFC8016FEF0E94E1
:10568000060F0F5F1F4FC8016FEF0E94060F0F5FDD
:105690001F4FC8016FEF0E94060F0F5F1F4FC80119
:1056A0006FEF0E94060F0F5F1F4FC8016FEF0E9440
:1056B000060F0F5F1F4FC8016FEF0E94060F0F5FAD
:1056C0001F4FC8016FEF0E94060FC80101966FEFD0
:1056D0000E94060F82E0AFCF0E94EB1D0E940311D3
:1056E0000E94C520FDCF629FD001739FF001829F71
:1056F000E00DF11D649FE00DF11D929FF00D839F61
:10570000F00D749FF00D659FF00D9927729FB00DFD
:10571000E11DF91F639FB00DE11DF91FBD01CF0110
:1057200011240895AA1BBB1B51E107C0AA1FBB1F70
:10573000A617B70710F0A61BB70B881F991F5A951D
:10574000A9F780959095BC01CD010895A1E21A2E8C
:10575000AA1BBB1BFD010DC0AA1FBB1FEE1FFF1F15
:10576000A217B307E407F50720F0A21BB30BE40B65
:10577000F50B661F771F881F991F1A9469F76095AC
:105780007095809590959B01AC01BD01CF01089566
:105790002F923F924F925F926F927F928F929F9241
:1057A000AF92BF92CF92DF92EF92FF920F931F932F
:1057B000CF93DF93CDB7DEB7CA1BDB0B0FB6F894E0
:1057C000DEBF0FBECDBF09942A88398848885F8420
:1057D0006E847D848C849B84AA84B984C884DF8091
:1057E000EE80FD800C811B81AA81B981CE0FD11D75
:1057F0000FB6F894DEBF0FBECDBFED010895FB01DB
:10580000DC018D91019080190110D9F3990B089555
:04581000F894FFCF3A
:10581400446F6F723A204F70656E00446F6F723A36
:1058240020436C6F7365640041433A204F4E00413E
:10583400433A204F4646004C4544313A204F4E00EF
:105844004C4544313A204F4646004C4544323A20B8
:105854004F4E004C4544323A204F4646004C454496
:10586400333A204F4E004C4544333A204F464600CD
:105874004C4544343A204F4E004C4544343A204F72
:105884004646004C4544353A204F4E004C4544357D
:105894003A204F464600302E4241434B20004241BD
:1058A400434B00312E4F4E00322E4F464600332ECE
:1058B4004155544F00342E4D616E75616C004F4E4E
:1058C400004F4646004155544F004D616E75616C62
:1058D40000312E204C6967687420310D0A00322E85
:1058E400204C6967687420320D0A00332E204C69FD
:1058F40067687420330D0A00342E204C696768747D
:1059040020340D0A00352E204C6967687420350D4B
:105914000A00362E2044696D6D65720D0A00302030
:105924002D2D3E204261636B0D0A00526F6F6D2076
:1059340031204C696768743A0031202D2D3E205483
:1059440075726E204F4E204C696768740032202DAA
:105954002D3E205475726E204F4646204C69676870
:10596400740033202D2D3E20546F67676C65204CE6
:10597400696768740030202D2D3E204261636B00FE
:105984004F4E2E2E2E004F46462E2E2E00546F675D
:10599400676C696E672E2E2E004261636B00526F36
:1059A4006F6D2032204C696768743A00526F6F6DD6
:1059B4002033204C696768743A00526F6F6D20344D
:1059C400204C696768743A00526F6F6D2035204C23
:1059D400696768743A0043686F6F7365204272693F
:1059E4006768746E657373206C6576656C20283007
:1059F400203C2D2D3E2039293A00312E204C696758
:105A04006874730D0A00322E2041430D0A00332EB0
:105A14002044657669636573205374617475730DEE
:105A24000A004C69676874733A0041433A0052753E
:105A34006E6E696E6720446576696365733A0031FA
:105A44002E436F6E6669726D2000302E43616E6363
:105A5400656C200044656C6574696E67202E2E2E7B
:105A64000043616E63656C202E2E2E0031202D2D97
:105A74003E2052656D6F76652055736572005265E0
:105A84006D6F766520557365723A2000456E7465B6
:105A9400722055736572494420546F204265205228
:105AA400656D6F7665643A200031202D2D3E2043CC
:105AB4006F6E6669726D2052656D6F76696E6720D0
:105AC400557365720030202D2D3E2043616E636551
:105AD4006C0052454D4F56494E4720555345522070
