:100000000C942A000C94DD0B0C94060C0C942F0C11
:100010000C9447000C9447000C94A70A0C94550AC2
:100020000C947E0A0C942C0A0C9405090C94DC08A0
:100030000C9447000C9447000C9447000C94470024
:100040000C942D0E0C9447000C9447000C94470020
:100050000C94470011241FBECFE5D8E0DEBFCDBF12
:1000600013E0A0E6B0E0EEE4F2E602C005900D92E7
:10007000A434B107D9F713E0A4E4B3E001C01D92A2
:10008000AB36B107E1F70E9454300C9425310C9443
:100090000000EF92FF920F931F937B018C0120E0F1
:1000A00030E040E05FE40E94F50388238CF0C80153
:1000B000B70120E030E040E05FE40E94C1010E940F
:1000C00025049B01AC01205030404040504806C000
:1000D000C801B7010E9425049B01AC01B901CA0106
:1000E0001F910F91FF90EF900895A0E0B0E0EBE733
:1000F000F0E00C94EE30DC012B01FA019C9192307F
:1001000008F439C1EB018881823008F433C194309E
:1001100069F4843009F02FC111969C91119789815F
:10012000981709F428C1ABE0B2E025C1843009F486
:1001300021C18230A9F4923009F01DC19A01AD01AC
:1001400088E0EA010990AE01E90109929E0181501F
:10015000C1F7E201898111969C918923818308C1AD
:10016000923009F407C112962D903C901397EB0141
:100170008A819B811496AD90BD90CD90DC901797AD
:10018000EC80FD800E811F819101281B390BB90184
:1001900037FF04C066277727621B730B6032710537
:1001A0000CF061C0121613066CF537014801062EDB
:1001B00004C096948794779467940A94D2F721E0C8
:1001C00030E040E050E004C0220F331F441F551FB1
:1001D0006A95D2F721503040404050402E213F21B7
:1001E00040235123211531054105510521F021E01E
:1001F00030E040E050E079018A01E628F72808293C
:1002000019293CC0232BD1F1260E371E350146019A
:10021000062E04C096948794779467940A94D2F734
:1002200021E030E040E050E004C0220F331F441FC3
:10023000551F6A95D2F721503040404050402A2146
:100240003B214C215D21211531054105510521F04E
:1002500021E030E040E050E059016A01A628B728CB
:10026000C828D9280BC0821593052CF01C01AA249C
:10027000BB24650103C0EE24FF24870111969C91E5
:10028000D20111968C91981709F445C0992339F041
:10029000A80197012A193B094C095D0906C0A6016E
:1002A00095012E193F09400B510B57FD08C01182D3
:1002B0003382228224833583468357831DC081E0A5
:1002C00081833382228288279927DC01821B930B4A
:1002D000A40BB50B84839583A683B7830DC0220F2F
:1002E000331F441F551F24833583468357838281E0
:1002F000938101979383828324813581468157813D
:10030000DA01C9010197A109B1098F5F9F4FAF4F72
:10031000BF4328F30BC0918333822282EA0CFB1C7B
:100320000C1D1D1DE482F5820683178383E0808304
:10033000248135814681578157FF1AC0C901AA27F8
:1003400097FDA095BA2F81709070A070B0705695EF
:10035000479537952795822B932BA42BB52B848318
:100360009583A683B7838281938101969383828349
:10037000DF0101C0D201CD01CDB7DEB7E2E10C94BF
:100380000A31A0E2B0E0E7ECF1E00C94FA306983C6
:100390007A838B839C832D833E834F835887E9E048
:1003A000EE2EF12CEC0EFD1ECE010196B7010E943F
:1003B00016068E010F5E1F4FCE010596B8010E94F2
:1003C00016068A8991E089278A8BC701B801AE0198
:1003D000475E5F4F0E9475000E944105A096E6E0CF
:1003E0000C941631A0E2B0E0E8EFF1E00C94FA30A2
:1003F00069837A838B839C832D833E834F835887C5
:10040000F9E0EF2EF12CEC0EFD1ECE010196B701A6
:100410000E9416068E010F5E1F4FCE010596B80191
:100420000E941606C701B801AE01475E5F4F0E94E9
:1004300075000E944105A096E6E00C941631A0E2FA
:10044000B0E0E5E2F2E00C94EE3069837A838B83CE
:100450009C832D833E834F835887CE010196BE0136
:10046000675F7F4F0E941606CE010596BE016F5E44
:100470007F4F0E9416069985923088F089898230D4
:10048000C8F0943019F4823051F404C0843029F457
:10049000923081F48BE092E0C6C0923049F420E0C3
:1004A0009A858A89981321E02A87CE010996BBC0D4
:1004B000823049F420E09A858A89981321E02A8BBA
:1004C000CE014196B0C02D843E844F8458886D88FB
:1004D0007E888F88988CEE24FF248701AA24BB2471
:1004E000650140E050E060E070E0E0E0F0E0C10174
:1004F00081709070892BE9F0E60CF71C081D191D1E
:100500009A01AB012A0D3B1D4C1D5D1D80E090E062
:10051000A0E0B0E0E614F7040805190520F481E036
:1005200090E0A0E0B0E0BA01A901480F591F6A1F8E
:100530007B1FAA0CBB1CCC1CDD1C97FE08C081E0F5
:1005400090E0A0E0B0E0A82AB92ACA2ADB2A3196B6
:10055000E032F10549F0660C771C881C991C569412
:10056000479437942794C3CFFA85EA892B893C892D
:100570008B859C85280F391F2E5F3F4F17C0CA01FE
:1005800081709070892B61F016950795F794E79428
:1005900080E090E0A0E0B0E8E82AF92A0A2B1B2BC3
:1005A00076956795579547952F5F3F4F77FDE7CF36
:1005B0000CC0440F551F661F771F17FD4160EE0CDE
:1005C000FF1C001F111F21503040403090E05907A0
:1005D00090E0690790E4790760F32B8F3C8FDB0193
:1005E000CA018F779070A070B07080349105A1051A
:1005F000B10561F447FD0AC0E114F10401051105DC
:1006000029F0405C5F4F6F4F7F4F40781A8EFE1786
:1006100011F081E08A8F4D8F5E8F6F8F78A383E01A
:10062000898FCE0149960E944105A096E2E10C9483
:100630000A31A8E1B0E0EFE1F3E00C94F630698311
:100640007A838B839C832D833E834F835887B9E0C5
:10065000EB2EF12CEC0EFD1ECE010196B7010E948F
:1006600016068E010F5E1F4FCE010596B8010E943F
:1006700016062985223008F47EC03989323010F4FC
:10068000B8017CC08A859A8989278A87243011F02D
:10069000223031F4231709F06EC06BE072E06EC0B7
:1006A000343039F41D861E861F86188A1C861B86E8
:1006B00004C0323021F484E08987B7015FC02B8504
:1006C0003C858B899C89281B390B3C872B87ED84C3
:1006D000FE840F851889AD88BE88CF88D88CEA142F
:1006E000FB040C051D0540F4EE0CFF1C001F111F40
:1006F000215030403C872B8720E030E040E050E044
:1007000080E090E0A0E0B0E460E070E0EA14FB0478
:100710000C051D0540F0282B392B4A2B5B2BEA18C2
:10072000FB080C091D09B695A79597958795EE0CC2
:10073000FF1C001F111F6F5F7F4F6F31710531F775
:10074000DA01C9018F779070A070B0708034910584
:10075000A105B10561F427FD0AC0E114F10401050A
:10076000110529F0205C3F4F4F4F5F4F20782D87B8
:100770003E874F87588BBE01675F7F4FCB010E943A
:1007800041056896EAE00C941231A8E1B0E0EBEC88
:10079000F3E00C94FA3069837A838B839C832D83F6
:1007A0003E834F83588789E0E82EF12CEC0EFD1E26
:1007B000CE010196B7010E9416068E010F5E1F4FF3
:1007C000CE010596B8010E9416068985823040F058
:1007D0008989823028F0C701B8010E948E0601C0C5
:1007E00081E06896E6E00C941631A8E1B0E0EBEF0A
:1007F000F3E00C94FA3069837A838B839C832D8396
:100800003E834F83588789E0E82EF12CEC0EFD1EC5
:10081000CE010196B7010E9416068E010F5E1F4F92
:10082000CE010596B8010E9416068985823040F0F7
:100830008989823028F0C701B8010E948E0601C064
:100840008FEF6896E6E00C941631ACE0B0E0EBE296
:10085000F4E00C94FE3069837A838B839C83CE0111
:100860000196BE016B5F7F4F0E9416068D8182301C
:1008700061F1823050F1843021F48E81882351F16E
:100880002EC02F81388537FD20C06E812F31310574
:100890001CF06623F9F023C08EE190E0821B930BDD
:1008A00029853A854B855C8504C0569547953795D3
:1008B00027958A95D2F76623B1F0509540953095EB
:1008C00021953F4F4F4F5F4F0EC020E030E040E09A
:1008D00050E009C02FEF3FEF4FEF5FE704C020E08B
:1008E00030E040E050E8B901CA012C96E2E00C94F7
:1008F0001A31A8E0B0E0EFE7F4E00C94F6307B01A9
:100900008C01611571058105910519F482E08983D7
:1009100060C083E089838EE1C82ED12CDC82CB823B
:10092000ED82FE820F831887C801B7010E94F2048E
:10093000FC013197F7FF3BC0222733272E1B3F0BCB
:1009400057016801022E04C0D694C794B794A794A7
:100950000A94D2F740E050E060E070E081E090E07F
:10096000A0E0B0E004C0880F991FAA1FBB1F2A9502
:10097000D2F70197A109B1098E219F21A023B123AC
:100980000097A105B10521F041E050E060E070E082
:100990004A295B296C297D294D835E836F83788783
:1009A0008EE190E08E1B9F0B9C838B8312C030974F
:1009B00081F00E2E04C0EE0CFF1C001F111F0A94C4
:1009C000D2F7ED82FE820F831887CE1ADF0ADC820F
:1009D000CB821A82CE0101960E9441052896EAE058
:1009E0000C941231EF92FF920F931F937B018C01B5
:1009F00080E0E81680E0F80681E0080780E018074C
:100A000088F48FEFE816F1040105110531F028F0A4
:100A100088E090E0A0E0B0E017C080E090E0A0E0C7
:100A2000B0E012C080E0E81680E0F80680E0080739
:100A300081E0180728F088E190E0A0E0B0E004C071
:100A400080E190E0A0E0B0E020E230E040E050E063
:100A5000281B390B4A0B5B0B04C016950795F794BE
:100A6000E7948A95D2F7F701ED5EFD4F8081281B50
:100A7000310941095109C9011F910F91FF90EF9070
:100A80000895DF92EF92FF920F931F93FC01E48091
:100A9000F58006811781D1808081823048F480E022
:100AA00090E0A0E1B0E0E82AF92A0A2B1B2BA5C0B0
:100AB000843009F49FC0823021F4EE24FF248701A2
:100AC00005C0E114F1040105110519F4E0E0F0E0BE
:100AD00096C0628173819FEF623879070CF05BC02A
:100AE00022E83FEF261B370B2A3131052CF020E09E
:100AF00030E040E050E02AC0B801A701022E04C057
:100B000076956795579547950A94D2F781E090E0DE
:100B1000A0E0B0E004C0880F991FAA1FBB1F2A9550
:100B2000D2F70197A109B1098E219F21A023B123FA
:100B30000097A105B10521F081E090E0A0E0B0E0D0
:100B40009A01AB01282B392B4A2B5B2BDA01C90107
:100B50008F779070A070B07080349105A105B105B9
:100B600039F427FF09C0205C3F4F4F4F5F4F04C04F
:100B7000215C3F4F4F4F5F4FE0E0F0E02030A0E0BE
:100B80003A07A0E04A07A0E45A0710F0E1E0F0E0DD
:100B900079018A0127C06038710564F5FB01E158CD
:100BA000FF4FD801C7018F779070A070B07080346C
:100BB0009105A105B10539F4E7FE0DC080E490E090
:100BC000A0E0B0E004C08FE390E0A0E0B0E0E80E69
:100BD000F91E0A1F1B1F17FF05C016950795F794EE
:100BE000E794319687E016950795F794E7948A95F0
:100BF000D1F705C0EE24FF248701EFEFF0E06E2F60
:100C0000679566276795902F9F77D794DD24D794B3
:100C10008E2F8695492F462B582F5D29B701CA0183
:100C20001F910F91FF90EF90DF900895FC01DB0181
:100C3000408151812281622F6F7770E0221F22272D
:100C4000221F9381892F880F822B282F30E0991F34
:100C50009927991F11969C93119721153105A9F594
:100C6000411551056105710511F482E037C082E834
:100C70009FEF13969C938E9312979A01AB0167E0B6
:100C8000220F331F441F551F6A95D1F783E08C93C1
:100C90000DC0220F331F441F551F12968D919C913A
:100CA0001397019713969C938E931297203080E0B0
:100CB000380780E0480780E4580758F314962D93CE
:100CC0003D934D935C93179708952F3F310579F429
:100CD000411551056105710519F484E08C9308955F
:100CE00064FF03C081E08C9312C01C9210C02F5788
:100CF000304013963C932E93129783E08C9387E0B9
:100D0000440F551F661F771F8A95D1F7706414969C
:100D10004D935D936D937C93179708951F93DC011A
:100D2000FB019C91923008F447C08081823008F426
:100D300043C0943051F411961C91843099F581810F
:100D4000682F70E0611B71093FC0843021F0923040
:100D500031F48230B9F18181882389F12DC0119657
:100D60001C9111978230F1F081811817D9F41296F5
:100D70002D913C911397828193818217930794F070
:100D800028173907BCF014968D919D910D90BC9158
:100D9000A02D2481358146815781281739074A07BC
:100DA0005B0718F4112341F00AC082179307A407C8
:100DB000B50740F4112319F061E070E005C06FEF52
:100DC0007FEF02C060E070E0CB011F91089586B70D
:100DD000846086BF86B7806486BF86B78D7F86BFF6
:100DE00086B78E7F86BF88E980B9089596B79460EC
:100DF00096BF96B7906496BF880F82B9109886B751
:100E0000806886BF089586B7806286BF86B780688F
:100E100086BF06B607FEFDCF089586B7806286BFFF
:100E200086B7806886BF06B607FEFDCF089586B7F1
:100E30008F7D86BF86B7806186BF86B7806886BF94
:100E40000895880F83B9189886B78F7D86BF86B7B7
:100E5000806886BF06B607FEFDCF0895880F83B968
:100E6000189A86B78F7D86BF86B7806886BF06B61C
:100E700007FEFDCF0895FC0186B7806486BF86B764
:100E8000806886BF06B607FEFDCF83B180830895D4
:100E900083B986B7806886BF06B607FEFDCF089582
:100EA00006B607FEFDCF0895FC0186B78F7B86BF8F
:100EB00086B7806886BF06B607FEFDCF83B1808304
:100EC0000895882331F583B78F7B83BF83B7877FEE
:100ED00083BF4423A9F583B78F7D83BF83B78F7EFC
:100EE00083BF6623D9F1613009F45BC0623009F435
:100EF00062C0633009F470C0643009F44FC06530DB
:100F000009F44CC0663009F47BC0673009F46EC048
:100F10000895813069F1823059F0833011F783B739
:100F2000806483BF83B7886083BF442351F5D3CFE8
:100F300083B78F7B83BF83B7886083BF442359F215
:100F4000413009F442C0423011F1433051F683B7C9
:100F5000806283BF83B7806183BFC3CF83B78B7F3A
:100F600083BF83B78D7F83BF83B78E7F83BF089591
:100F700083B7806483BF83B7877F83BF442309F42B
:100F8000AACF413021F0423009F0ABCFE0CF83B798
:100F9000806283BF83B78F7E83BFA3CF83B7846014
:100FA000DFCF83B78B7F83BF83B78D7F83BF83B74B
:100FB000816083BF089583B78B7F83BF83B78260CF
:100FC00083BF83B78E7F83BF089583B78F7D83BF31
:100FD00083B7806183BF85CF83B78B7F83BF83B7A0
:100FE000826083BF83B7816083BF089583B78460C5
:100FF00083BF83B7826083BF83B7816083BF089557
:1010000083B78460DACF82BF08958CBF089589B713
:10101000816089BF089589B78E7F89BF089589B798
:10102000826089BF089589B78D7F89BF0895009731
:1010300021F090934703809346030895009721F091
:1010400090934503809344030895AF92BF92CF924B
:10105000DF92EF92FF920F931F937B018C012CE0A4
:1010600096958795779567952A95D1F70E9479048B
:101070005B016C01C801B7010E94790420E030E0F7
:1010800040E85BE30E941F02A60195010E94C10196
:1010900020E030E040E853EC0E941F0220E030E006
:1010A00040E853E40E94F2010E9449006115710575
:1010B0008105910559F062BFC601B50120E030E01D
:1010C00040E85FE30E94F2015B016C01C601B501DB
:1010D00020E030E040E050E00E94C503882329F181
:1010E000C601B50120E030E040E85FE30E94C101A5
:1010F0007B018C0108B600FEFDCF88B7816088BFF8
:10110000C801B70120E030E040E050E00E94C50394
:10111000882359F0C801B70120E030E040E85FE3E0
:101120000E94C1017B018C01E5CF1F910F91FF90BF
:10113000EF90DF90CF90BF90AF90089528EE33E00E
:1011400040E050E00E947E309B01AC01DC01CB010D
:101150009F70A070B070FC01892BC9F4DA01C9013D
:101160005CE0B695A795979587955A95D1F7BC0100
:1011700080E082BF6115710549F008B600FEFDCF21
:1011800088B7816088BF61507040B9F70895DA016F
:10119000C9014CE0B695A795979587954A95D1F7E3
:1011A000BC016F5F7F4FF295E295EF70EF27FF7004
:1011B000EF278E2F8195DDCF1F920F920FB60F92E2
:1011C00011242F933F934F935F936F937F938F934C
:1011D0009F93AF93BF93EF93FF93E0914603F091FA
:1011E0004703309709F00995FF91EF91BF91AF91B7
:1011F0009F918F917F916F915F914F913F912F912F
:101200000F900FBE0F901F9018951F920F920FB660
:101210000F9211242F933F934F935F936F937F937C
:101220008F939F93AF93BF93EF93FF93E09144030A
:10123000F0914503309709F00995FF91EF91BF9127
:10124000AF919F918F917F916F915F914F913F915E
:101250002F910F900FBE0F901F901895982F683008
:1012600030F48EB5887F8EBD8EB5862B8EBD9F30B7
:10127000E0F4973009F45BC0983038F19B3009F402
:1012800093C09C30C8F5993009F45EC09A3008F4D8
:101290007FC08FB58E7F8FBD8FB582608FBD8EB5BD
:1012A000877F8EBD8EB580618EBD443038F4229527
:1012B000207F4295440F440F407C422B8FB58F70A6
:1012C0008FBD8FB5482B4FBD0895933009F466C08C
:1012D000943030F59130F1F1923008F44AC08FB576
:1012E0008E7F8FBD8FB582608FBD8EB5877F8EBD9F
:1012F0008EB58F7E8EBDD9CF9D30C1F19D3008F463
:1013000041C09E3091F68FB581608FBD8FB58260F0
:101310008FBD8EB588608EBD8EB580618EBDC5CF08
:101320009530F1F0963040F18FB58E7F02C08FB5C9
:1013300081608FBD8FB582608FBD8EB588608EBD98
:101340008EB58F7E8EBDB1CF8FB581608FBD8FB5CD
:101350008D7FA4CF8FB581608FBD8FB58D7FC4CFBA
:101360008FB581608FBD8FB58D7FE6CF8FB58E7FB6
:10137000CCCF8FB58E7FF0CF8FB58E7F8FBD8FB5E1
:101380008D7FDACF8FB58E7F8FBD8FB58D7FC0CF2C
:101390008FB58E7F8FBD8FB58D7F80CF8FB58160EC
:1013A0008FBD8FB58260A0CF8FB5816074CF9DBD9A
:1013B0008CBD08952CB53DB5C90108959BBD8ABD6E
:1013C000089599BD88BD089597BD86BD089500977D
:1013D00021F090934D0380934C030895009721F0E2
:1013E00090934B0380934A030895009721F09093C4
:1013F000490380934803089589B7846089BF08959D
:1014000089B78B7F89BF089589B7806189BF0895A7
:1014100089B78F7E89BF089589B7886089BF08958D
:1014200089B7877F89BF089526B537B5C901089563
:10143000813031F0882319F48EB58F7B8EBD0895ED
:101440008EB580648EBD089589B7806289BF089586
:1014500089B78F7D89BF08951F920F920FB60F92A3
:1014600011242F933F934F935F936F937F938F93A9
:101470009F93AF93BF93EF93FF93E0914C03F09151
:101480004D03309709F00995FF91EF91BF91AF910E
:101490009F918F917F916F915F914F913F912F918C
:1014A0000F900FBE0F901F9018951F920F920FB6BE
:1014B0000F9211242F933F934F935F936F937F93DA
:1014C0008F939F93AF93BF93EF93FF93E0914A0362
:1014D000F0914B03309709F00995FF91EF91BF917F
:1014E000AF919F918F917F916F915F914F913F91BC
:1014F0002F910F900FBE0F901F9018951F920F9273
:101500000FB60F9211242F933F934F935F936F93D6
:101510007F938F939F93AF93BF93EF93FF93E0914C
:101520004803F0914903309709F00995FF91EF9135
:10153000BF91AF919F918F917F916F915F914F91EB
:101540003F912F910F900FBE0F901F9018951F92F3
:101550000F920FB60F9211240F900FBE0F901F9095
:101560001895882321F0813021F081E008956C984E
:1015700008956C9A80E008956F9A08956E9A089580
:10158000823039F0833011F081E008956D9A80E067
:1015900008956D9880E00895843039F0853011F019
:1015A00081E008956B9A80E008956B9880E008953B
:1015B000863039F0873011F081E008956A9A80E032
:1015C00008956A9880E00895882381F0813091F031
:1015D0008230D1F08330E9F0843089F08530F1F049
:1015E000863009F1873021F181E008956898699883
:1015F00070980895689A6998709880E0089568983E
:101600006998709A80E008956898699A709880E067
:101610000895689A699A709880E00895689A699820
:10162000709A80E008956898699A709A80E00895A9
:10163000689A699A709A80E008958FB9779BFECF77
:101640008FB108958FB9779BFECF8FB108951F9307
:10165000162F823018F081E01F9108956830D8F776
:101660008130B1F081E066E041E00E94070D87E043
:101670000E94D80A85E00E94CC0A83E00E94C00A3A
:10168000812F0E94E40A80E00E94B10A6E9AE4CFA2
:1016900065E041E00E94070D81E064E041E00E94C6
:1016A000070D81E067E041E00E94070D81E064E002
:1016B00041E00E948A0C87E00E94D80A85E00E94DF
:1016C000CC0A83E00E94C00A812F0E94E40A81E0D4
:1016D0000E94B10A6E9AC0CF882361F48BB78064F0
:1016E0008BBF613061F16130A8F06230B1F16330DD
:1016F00069F108958130A9F08230D9F78BB7806203
:101700008BBF623009F442C0633099F784B78064BC
:1017100084BF089585B78E7F85BF85B78D7F85BFD0
:1017200008958BB780688BBF6130A1F16130E0F420
:1017300085B78B7F85BF85B7877F85BF089585B7C0
:10174000816085BF85B78D7F85BF089585B781602E
:1017500085BF85B7826085BF089585B78E7F85BFB9
:1017600085B7826085BF0895623049F0633009F61D
:1017700085B7846085BF85B7886085BF089585B7C4
:101780008B7F85BF85B7886085BF089584B78F7BC1
:1017900084BF089585B7846085BF85B7877F85BF7F
:1017A00008956115710541F0E82FF0E0EE0FFF1F7D
:1017B000E25BFC4F7183608308951F920F920FB616
:1017C0000F9211242F933F934F935F936F937F93C7
:1017D0008F939F93AF93BF93EF93FF93E0914E034B
:1017E000F0914F03309709F00995FF91EF91BF9168
:1017F000AF919F918F917F916F915F914F913F91A9
:101800002F910F900FBE0F901F9018951F920F925F
:101810000FB60F9211242F933F934F935F936F93C3
:101820007F938F939F93AF93BF93EF93FF93E09139
:101830005003F0915103309709F00995FF91EF9112
:10184000BF91AF919F918F917F916F915F914F91D8
:101850003F912F910F900FBE0F901F9018951F92E0
:101860000F920FB60F9211242F933F934F935F93D4
:101870006F937F938F939F93AF93BF93EF93FF9358
:10188000E0915203F0915303309709F00995FF91CD
:10189000EF91BF91AF919F918F917F916F915F91E8
:1018A0004F913F912F910F900FBE0F901F90189561
:1018B0008FB780688FBF08958FB78F778FBF0895D8
:1018C000843058F4882339F0813061F0823039F067
:1018D00061BB80E008956ABB089581E0089564BB10
:1018E00080E0089567BB80E00895843058F4882331
:1018F00039F0813061F0823039F062BB80E00895C8
:101900006BBB089581E0089565BB80E0089568BBD6
:1019100080E00895843020F4683010F4423010F0F4
:1019200081E00895413011F1882399F0813009F464
:101930003CC0823009F452C022B381E090E002C082
:10194000880F991F6A95E2F78095822382BB80E019
:1019500008952BB381E090E002C0880F991F6A952B
:10196000E2F7809582238BBB80E00895882389F07D
:10197000813041F1823009F43EC022B381E090E031
:1019800002C0880F991F6A95E2F7282B22BB80E0DE
:1019900008952BB381E090E002C0880F991F6A95EB
:1019A000E2F7282B2BBB80E0089528B381E090E07C
:1019B00002C0880F991F6A95E2F78095822388BB41
:1019C00080E0089528B381E090E002C0880F991F5D
:1019D0006A95E2F7282B28BB80E0089525B381E0C3
:1019E00090E002C0880F991F6A95E2F780958223E4
:1019F00085BB80E0089525B381E090E002C0880FA8
:101A0000991F6A95E2F7282B25BB80E00895843062
:101A100020F4683010F4423010F081E00895413035
:101A200011F1882399F0813009F43CC0823009F427
:101A300052C021B381E090E002C0880F991F6A95DF
:101A4000E2F78095822381BB80E008952AB381E08C
:101A500090E002C0880F991F6A95E2F78095822373
:101A60008ABB80E00895882389F0813041F182307B
:101A700009F43EC021B381E090E002C0880F991FB5
:101A80006A95E2F7282B21BB80E008952AB381E014
:101A900090E002C0880F991F6A95E2F7282B2ABBB5
:101AA00080E0089527B381E090E002C0880F991F7D
:101AB0006A95E2F78095822387BB80E0089527B37B
:101AC00081E090E002C0880F991F6A95E2F7282B09
:101AD00027BB80E0089524B381E090E002C0880F26
:101AE000991F6A95E2F78095822384BB80E0089570
:101AF00024B381E090E002C0880F991F6A95E2F755
:101B0000282B24BB80E00895FA01843050F468301B
:101B100040F4882341F0813089F0823089F080B32D
:101B200003C081E0089589B390E002C09595879540
:101B30006A95E2F78170808380E0089586B3F4CFE0
:101B400083B3F2CF843080F4882349F0813099F058
:101B5000823061F082B3809582BB80E008958BB3C0
:101B600080958BBB80E0089581E0089585B38095D2
:101B700085BB80E0089588B3809588BB80E0089598
:101B80008430A0F4683090F4882391F08130E1F043
:101B9000823031F122B381E090E002C0880F991FBA
:101BA0006A95E2F7282722BB80E0089581E0089536
:101BB0002BB381E090E002C0880F991F6A95E2F78D
:101BC00028272BBB80E0089528B381E090E002C075
:101BD000880F991F6A95E2F7282728BB80E00895AF
:101BE00025B381E090E002C0880F991F6A95E2F763
:101BF000282725BB80E00895FB01843070F48823FA
:101C000041F0813081F0823051F080B3808380E0F8
:101C1000089589B3808380E0089581E0089583B3B7
:101C2000808380E0089586B3808380E008953E9AA3
:101C30003F983D9A87B1817487B987EA86B908953C
:101C4000339A089533980895369A0895009721F0AD
:101C5000909355038093540308951F920F920FB6EB
:101C60000F9211242F933F934F935F936F937F9322
:101C70008F939F93AF93BF93EF93FF93E0915403A0
:101C8000F0915503309709F00995FF91EF91BF91BD
:101C9000AF919F918F917F916F915F914F913F9104
:101CA0002F910F900FBE0F901F9018950E94240E39
:101CB00064B175B180E090E00E9479042FE632E1D2
:101CC00043E050E40E9419030E944900DC01CB016B
:101CD00090E008950E94170E80E060E040E00E94CE
:101CE000070D0895843050F4683040F4433030F4E8
:101CF000413031F0442321F0423029F081E0089551
:101D00000E948A0C08950E94C00D0895843010F43A
:101D1000683010F081E0089541E00E94070D0895B9
:101D200080E063E041E00E94070D80E064E041E074
:101D30000E94070D80E065E041E00E94070D80E011
:101D400066E041E00E94070D80E067E041E00E940C
:101D5000070D08951F9383E066E041E00E948A0C1E
:101D6000182F81E061E040E00E948A0C812B1F91D6
:101D700008951F9383E066E040E00E948A0C182FCC
:101D800081E061E040E00E948A0C812B1F91089560
:101D9000843010F4683010F081E0089541E00E9432
:101DA000070D08955F926F927F928F929F92AF92EC
:101DB000BF92CF92DF92EF92FF920F931F93082F63
:101DC00083E066E040E00E948A0C81E061E040E050
:101DD0000E948A0C402F4295417081E063E00E948E
:101DE0008A0C582E402F42954695417083E063E05F
:101DF0000E948A0CF82E402F4295469546954170D8
:101E000083E064E00E948A0C682E402F441F442720
:101E1000441F83E065E00E948A0C782E83E067E02F
:101E200041E00E948A0C882E50E2C52E5EE4D52E39
:101E3000C6010197F1F783E067E040E00E948A0C59
:101E4000982E10E002951295107F1027007F102722
:101E5000159507951595079515950795159507956A
:101E6000402F417081E063E00E948A0CA82E1595F6
:101E70000795402F417083E063E00E948A0CB82EE2
:101E800015950795402F417083E064E00E948A0C0D
:101E9000E82E15950795017083E065E0402F0E94BC
:101EA0008A0C082F83E067E041E00E948A0C182F1B
:101EB000C6010197F1F783E067E040E00E948A0CD9
:101EC000F528F628F728F828F928FA28FB28FE280C
:101ED000F02AF12AF6013197F1F78F291F910F911E
:101EE000FF90EF90DF90CF90BF90AF909F908F903A
:101EF0007F906F905F90089581E00E94D20E0895C8
:101F0000FF920F931F9388E30E94D20EF82E8FE06A
:101F10000E94D20E082F20E030E048EC50E0CA01C9
:101F20000197F1F72F5F3F4F89E0243C3807B9F75D
:101F300081E00E94D20E182F86E00E94D20E0F2957
:101F4000012B802B1F910F91FF900895EF92FF922C
:101F50000F931F9382E00E94D20EE82E88E20E9427
:101F6000D20E182F8FE00E94D20EF82E81E00E9430
:101F7000D20E082F86E00E94D20E1E291F29102B98
:101F8000812B1F910F91FF90EF9008955F926F92B8
:101F90007F928F929F92AF92BF92CF92DF92EF92F9
:101FA000FF920F931F93082F83E066E041E00E94A9
:101FB0008A0C81E061E040E00E948A0C402F42954B
:101FC000417081E063E00E948A0C582E402F4295B8
:101FD0004695417083E063E00E948A0CF82E402F02
:101FE000429546954695417083E064E00E948A0CD4
:101FF000682E402F441F4427441F83E065E00E9461
:102000008A0C782E83E067E041E00E948A0C882EDB
:10201000B0E7CB2EB7E1DB2EC6010197F1F783E0E5
:1020200067E040E00E948A0C982E10E0029512951D
:10203000107F1027007F1027159507951595079598
:102040001595079515950795402F417081E063E040
:102050000E948A0CA82E15950795402F417083E0A9
:1020600063E00E948A0CB82E15950795402F4170A9
:1020700083E064E00E948A0CE82E159507950170B4
:1020800083E065E0402F0E948A0C082F83E067E020
:1020900041E00E948A0C182FC6010197F1F783E0F6
:1020A00067E040E00E948A0CF528F628F728F82817
:1020B000F928FA28FB28FE28F02AF12AF6013197A0
:1020C000F1F78F291F910F91FF90EF90DF90CF9044
:1020D000BF90AF909F908F907F906F905F9008958A
:1020E000FC0180810E94C60F08950E94C60F0895CA
:1020F0008F929F92AF92BF92CF92DF92EF92FF9218
:102100000F931F93DF93CF93CDB7DEB72A970FB608
:10211000F894DEBF0FBECDBF7B018C016115710548
:102120008105910509F450C097FD53C0CC24C39498
:102130004E010894811C911C5401DD24C801B70193
:102140002AE030E040E050E00E94B130605DF501EF
:1021500061935F01C801B7012AE030E040E050E040
:102160000E94B130C901DA017C018D01D394E114E0
:10217000F1040105110511F7FD2CFA94F7FC10C0CC
:102180000F2D112707FD1095080D191DF8018081ED
:102190000E94C60FC82AFA9401501040F7FEF6CFED
:1021A0008C2D2A960FB6F894DEBF0FBECDBFCF910F
:1021B000DF911F910F91FF90EF90DF90CF90BF9034
:1021C000AF909F908F90089580E30E94C60FC82E15
:1021D000E7CF10950095F094E094E11CF11C011DEF
:1021E000111D8DE20E94C60FCC24C394C82AA0CF33
:1021F000CF93DF93EC018881882359F00E94C60FAA
:10220000982F219688818823C9F7892FDF91CF9154
:10221000089591E0FACF9F92AF92BF92CF92DF9252
:10222000EF92FF920F931F937B01880F880F880F07
:10223000805C0E94D20E982EF70180810E94C60F0A
:10224000182FF70181810E94C60FA82EF701828105
:102250000E94C60FB82EF70183810E94C60FC82EB8
:10226000F70184810E94C60FD82EF70185810E9454
:10227000C60F082FF70186810E94C60F19291A2957
:102280001B291C291D29102B182BF70187810E945F
:10229000C60F812B1F910F91FF90EF90DF90CF9091
:1022A000BF90AF909F9008957F928F929F92AF9230
:1022B000BF92CF92DF92EF92FF920F931F9383E032
:1022C00066E041E00E94070D782E81E061E041E088
:1022D0000E94070D182F83E067E041E00E94070D80
:1022E000882E81E063E041E00E94070D982E83E094
:1022F00063E041E00E94070DA82E83E064E041E026
:102300000E94070DB82E83E065E041E00E94070DB2
:10231000C82E82E00E94D20ED82E88E20E94D20EF1
:10232000E82E8FE00E94D20EF82E81E00E94D20E9D
:10233000082F86E00E94D20E1729182919291A2978
:102340001B291C291D291E291F29102B812B1F9198
:102350000F91FF90EF90DF90CF90BF90AF909F9044
:102360008F907F900895CF93DF938823C1F46431D9
:1023700040F181E00E94D20E85E80E94D20EC0E6B4
:10238000D0E080916000882331F00E94C60F219632
:1023900088818823D1F781E0DF91CF910895813042
:1023A00039F4643130F7862F80540E94D20EF4CF76
:1023B000823071F46431E8F6862F8C560E94D20E7A
:1023C000EBCF862F80580E94D20EDF91CF910895D7
:1023D000833079F6643168F6862F8C520E94D20ED3
:1023E000DF91CF9108951F93CF93DF938823F1F46A
:1023F000643180F181E00E94D20E80E065E00E94AD
:10240000B311C0E6D0E080916000882331F00E94D3
:10241000C60F219688818823D1F711E080E20E94BF
:10242000C60F812BDF91CF911F910895813041F428
:10243000643100F7862F80540E94D20E182FEECF01
:102440008230A9F46431B0F6862F8C560E94D20EE9
:10245000182FE4CF862F80580E94D20E182F80E2CA
:102460000E94C60F812BDF91CF911F910895833079
:1024700009F6643108F0BECF862F8C520E94D20E2E
:10248000182F80E20E94C60F812BDF91CF911F9100
:1024900008952F923F924F925F926F927F928F9208
:1024A0009F92AF92BF92CF92DF92EF92FF920F93E3
:1024B0001F93DF93CF93CDB7DEB7A3970FB6F894F2
:1024C000DEBF0FBECDBF9BA38AA3DE015296E3E120
:1024D000F3E080E101900D928150E1F792E09A8360
:1024E0001B821C829D8383E08E838F8398879987CC
:1024F0009A879B8791E09C8787E08D879E871F86C0
:1025000086E0888B85E0898B8AA19BA1892B09F4C1
:102510002AC1198277247394E6E02E2E312C2C0EDA
:102520003D1E7EE0472E512C4C0E5D1E5E01089430
:10253000A11CB11C662463940E94560E8093640310
:1025400080915D038823F1F4809164038D3128F03C
:1025500080916603882309F4ADC0809164038531BE
:1025600028F480915B03882309F4D8C08091640328
:10257000863140F0809164038C3120F41092660320
:1025800010925B0380915903813009F44FC063E0DE
:10259000E62ECC24DD24F101EC0DFD1D8080F2013E
:1025A000EC0DFD1D9080882D692D40E00E948A0C65
:1025B000182FFA800A858F2D602FA5010E94840DA7
:1025C000182B172989818823B1F1FB800B858F2D6A
:1025D000602FA5010E94840D182B8981882309F49E
:1025E0005EC0FC800C858F2D602FA5010E94840D9C
:1025F000182B8981882309F455C082E067E0A50182
:102600000E94840D182B8981882309F44EC0882DDF
:10261000692D41E00E948A0C712E782A0894C11C11
:10262000D11CEE2009F488CFEA94B5CF0E94FF2593
:1026300010925903ACCF53E0D52E8F2D602FA501FA
:102640000E94840D182B89818823B9F38D2D90E089
:10265000880F991F880F991FA80EB91EAE0CB11CC8
:10266000F5018189EAA1FBA18083812FA3960FB692
:10267000F894DEBF0FBECDBFCF91DF911F910F91B8
:10268000FF90EF90DF90CF90BF90AF909F908F9092
:102690007F906F905F904F903F902F90089542E011
:1026A000D42ECBCFDD24D394C8CFDD2432E0F32E5B
:1026B00007E0C3CF609266036092630310925B03EE
:1026C00087E00E94AC166092590381E062E041E02D
:1026D0000E948A0C81E064E040E00E948A0C86E45B
:1026E0000E941D0B80935C0381E064E041E00E9446
:1026F0008A0C81E064E040E00E948A0C8EE40E9433
:102700001D0B80935C0381E064E041E00E948A0C31
:1027100081E062E040E00E948A0C34CF60925B036B
:1027200010926303109266030E94931660925903FD
:1027300081E062E041E00E948A0C81E064E040E0D8
:102740000E948A0C86E40E941D0B80935C0381E04A
:1027500064E041E00E948A0C81E064E040E00E9475
:102760008A0C86E4CCCF11E080CF2F923F924F921B
:102770005F927F928F929F92AF92BF92CF92DF92A1
:10278000EF92FF920F931F93DF93CF93CDB7DEB7F6
:10279000A3970FB6F894DEBF0FBECDBF9BA38AA34D
:1027A000DE015296E3E2F3E080E101900D92815068
:1027B000E1F792E09A831B821C829D8383E08E83E3
:1027C0008F83988799879A879B8791E09C8787E07A
:1027D0008D879E871F8686E0888B85E0898B8AA1FE
:1027E0009BA1892B09F4A0C01982EE24E39436E062
:1027F000432E512C4C0E5D1E2EE0222E312C2C0E21
:102800003D1E6E010894C11CD11C0E947B2593E0E3
:10281000992EAA24BB24F201EA0DFB1D7080F10160
:10282000EA0DFB1D8080872D682D40E00E948A0CF8
:10283000182FFA800A858F2D602FA6010E94840D23
:10284000182B1E298981882389F1FB800B858F2D08
:10285000602FA6010E94840D182B8981882309F41A
:1028600058C0FC800C858F2D602FA6010E94840D1E
:10287000182B8981882309F44FC082E067E0A60104
:102880000E94840D182B8981882309F448C0872D64
:10289000682D41E00E948A0CE12EE82A0894A11CD0
:1028A000B11C992009F4B1CF9A94B5CF83E0E82EFA
:1028B0008F2D602FA6010E94840D182B89818823FB
:1028C000B9F38E2D90E0880F991F880F991FC80EBD
:1028D000D91EC90CD11CF6018189EAA1FBA1808314
:1028E000812FA3960FB6F894DEBF0FBECDBFCF9158
:1028F000DF911F910F91FF90EF90DF90CF90BF90ED
:10290000AF909F908F907F905F904F903F902F90CF
:102910000895B2E0EB2ECCCFEE24E394C9CFEE24A1
:10292000A2E0FA2E07E0C4CF11E0DACF2F923F9257
:102930004F925F926F927F928F929F92AF92BF92CF
:10294000CF92DF92EF92FF920F931F93DF93CF937B
:10295000CDB7DEB7A4970FB6F894DEBF0FBECDBFDC
:102960009CA38BA3DE015296E3E3F3E080E10190A8
:102970000D928150E1F792E09A831B821C829D8325
:1029800083E08E838F83988799879A879B8791E0CE
:102990009C8787E08D879E871F8686E0888B85E0F1
:1029A000898B8BA19CA1892B09F4ADC0198211E000
:1029B00066247724A6E02A2E312C2C0E3D1EFEE044
:1029C0004F2E512C4C0E5D1E6E010894C11CD11C63
:1029D0000E947B25E3E0EE2EAA24BB24F101EA0D40
:1029E000FB1D8080F201EA0DFB1D9080882D692D72
:1029F00040E00E948A0C8AA3FA800A858F2D602FFE
:102A0000A6010E94840D9AA1982B192B89818823F5
:102A100009F453C0FB800B858F2D602FA6010E9407
:102A2000840D182B8981882309F462C0FC800C85F1
:102A30008F2D602FA6010E94840D182B8981882379
:102A400009F459C082E067E0A6010E94840D182BAA
:102A50008981882309F452C0882D692D41E00E94A4
:102A60008A0C182B0894A11CB11CEE2011F0EA94DA
:102A7000B5CF0894610871086114710409F0A8CFFA
:102A8000EBA1FCA11082812FA4960FB6F894DEBFB3
:102A90000FBECDBFCF91DF911F910F91FF90EF90AF
:102AA000DF90CF90BF90AF909F908F907F906F906E
:102AB0005F904F903F902F90089573E0B72E8F2D29
:102AC000602FA6010E94840D182B89818823B9F3F9
:102AD0008B2D90E0880F991F880F991FC80ED91E63
:102AE000CE0CD11CF6018189EBA1FCA18083CBCF58
:102AF00062E0B62EE4CFBB24B394E1CFBB2452E016
:102B0000F52E07E0DCCF11E0BECF3F924F925F92EF
:102B10006F927F928F929F92AF92BF92CF92DF92ED
:102B2000EF92FF920F931F9382E067E040E00E94D4
:102B3000070D382E80E061E040E00E94070D182F5D
:102B400080E062E040E00E94070D482E82E062E0F3
:102B500040E00E94070D582E82E065E041E00E94AF
:102B6000070D682E82E066E041E00E94070D782E96
:102B700083E060E041E00E94070D882E83E061E081
:102B800041E00E94070D982E82E067E041E00E943C
:102B90008A0CA82E80E061E041E00E948A0CB82EE9
:102BA00080E062E041E00E948A0CC82E82E062E090
:102BB00041E00E948A0CD82E82E065E041E00E944C
:102BC0008A0CE82E82E066E041E00E948A0CF82E32
:102BD00083E060E041E00E948A0C082F83E061E01E
:102BE00041E00E948A0C1329142915291629172956
:102BF000182919291A291B291C291D291E291F29B1
:102C0000102B812B1F910F91FF90EF90DF90CF90B1
:102C1000BF90AF909F908F907F906F905F904F90FC
:102C20003F9008950F931F93CF93DF939C01EB0187
:102C30008F3F910589F180F1805091408F3F910540
:102C400091F088F0C901805092408F3F910539F191
:102C500030F1C901805093408F3F910509F010F584
:102C6000022F14E502C0022F11E50E940307812FF5
:102C70000E942107802F0E9448070E940D07812F84
:102C80000E942E07CE010E9454070E941707DF9171
:102C9000CF911F910F910895082F10E5E6CF022FD5
:102CA00012E5E3CF10E5E1CFFF920F931F939C0154
:102CB000F62E8F3F910579F170F1805091408F3F52
:102CC000910591F088F0C901805092408F3F9105A5
:102CD00029F120F1C901805093408F3F910509F0FF
:102CE00000F5022F14E502C0022F11E50E94030730
:102CF000812F0E942107802F0E9448078F2D0E945C
:102D000048070E94170780E29EE40197F1F71F91A0
:102D10000F91FF900895082F10E5E8CF022F12E5DC
:102D2000E5CF10E5E3CF82E063E040E00E948A0C4B
:102D300082E064E040E00E948A0C089590E00E94E6
:102D4000E10982E063E040E00E948A0C82E064E0F6
:102D500041E00E948A0C089590E00E94E10982E01F
:102D600063E041E00E948A0C82E064E040E00E945F
:102D70008A0C089582E063E041E00E94070D82E042
:102D800064E041E00E94070D0895843050F46830FB
:102D900040F4433030F4413031F0442321F04230EC
:102DA00029F081E008950E948A0C08950E94C00DC8
:102DB0000895843010F4683010F081E0089541E007
:102DC0000E94070D089581E064E040E00E948A0CB3
:102DD00088E70E941D0B80935A0381E064E041E084
:102DE0000E948A0C20E030E048EC50E0CA010197D4
:102DF000F1F72F5F3F4F81E0243F3807B9F780910B
:102E00005A03813309F468C080915A03823309F46C
:102E10008DC080915A03833309F4B2C080915A0364
:102E2000843379F080915A03853309F4D3C08091BB
:102E30005A03823409F4F8C080915A03863419F198
:102E4000089581E064E040E00E948A0C88E70E94D7
:102E50001D0B80935A0381E064E041E00E948A0CDC
:102E600080915A038E3409F41AC180915A03863432
:102E700009F460C180915A03843509F44FC181E09F
:102E800080935903089581E064E040E00E948A0C39
:102E900088E70E941D0B80935A0381E064E041E0C3
:102EA0000E948A0C80915A038E3409F44BC18091A0
:102EB0005A03863409F4E2C080915A03843509F438
:102EC00052C180915A038D3419F481E080935D03DF
:102ED00081E080935903089581E064E040E00E941E
:102EE0008A0C88E70E941D0B80935A0381E064E0FE
:102EF00041E00E948A0C80915A038E3409F4C6C0C6
:102F000080915A03863409F4D3C080915A038435E2
:102F100009F0B5CF80E063E042E00E94720E80913C
:102F2000650391E0892780936503A9CF81E064E080
:102F300040E00E948A0C88E70E941D0B80935A0390
:102F400081E064E041E00E948A0C80915A038E3453
:102F500009F4BEC080915A03863409F4B1C080914F
:102F60005A03843509F08BCF80E064E042E00E9490
:102F7000720E8091610391E08927809361037FCF76
:102F800081E064E040E00E948A0C88E70E941D0B0B
:102F900080935A0381E064E041E00E948A0C8091B2
:102FA0005A038E3409F4A5C080915A03863409F47B
:102FB00098C080915A03843509F061CF80E065E0C4
:102FC00042E00E94720E80915F0391E08927809316
:102FD0005F0355CF81E064E040E00E948A0C88E7FF
:102FE0000E941D0B80935A0381E064E041E00E943F
:102FF0008A0C80915A038E3409F4BCC080915A0324
:10300000863409F4A8C080915A03843509F037CF7B
:1030100080E067E042E00E94720E80915E0391E0E2
:10302000892780935E032BCF81E064E040E00E941B
:103030008A0C88E70E941D0B80935A0381E064E0AC
:1030400041E00E948A0C80915A038E3409F460C0DA
:1030500080915A03863409F455C080915A0384350F
:1030600009F0EECE80E067E042E00E94720E8091AF
:103070005E0391E0892780935E0308950E94931672
:103080001092630381E08093660322CF80E063E0C7
:1030900041E00E94720E81E080936503F0CE80E0F3
:1030A00066E041E00E94720E81E080936803E7CE03
:1030B00080E063E040E00E94720E10926503DFCE74
:1030C00080E064E040E00E94720E10926103D7CE6F
:1030D00080E064E041E00E94720E81E08093610331
:1030E000CECE80E065E040E00E94720E10925F0359
:1030F000C6CE80E065E041E00E94720E81E08093E0
:103100005F03BDCE81E060E040E00E94C5160895F7
:1031100081E060E041E00E94C516089580E066E02D
:1031200042E00E94720E8091680391E089278093AB
:103130006803A5CE80E066E040E00E94720E109227
:1031400068039DCE87E00E94AC1681E08093630304
:1031500080935B03BDCE80E067E040E00E94720E8A
:1031600010925E038CCE1092660310925B03109255
:103170005D03AECE80E067E041E00E94720E81E028
:1031800080935E037CCE0E94580C80E063E00E9436
:103190006C0B80E063EE76E10E94D10B81E062E08F
:1031A00041E00E94070D81E063E00E94270B089533
:1031B00080916303811108950E94560E8D3191050F
:1031C00054F4853191058CF41092570310925603F4
:1031D0000E949316089581E090E0909357038093A6
:1031E000560387E00E94AC16089580915603909193
:1031F000570381309105A9F3892B51F308950E945B
:103200006A0E0E94BA160895AF92BF92CF92DF92D3
:10321000FF920F931F93DF93CF930F92CDB7DEB73B
:103220005C01198200E610E0FF246E010894C11CC5
:10323000D11CC801B6010E94121689818F3F09F086
:10324000F394085F1F4F81E00032180791F7F501F2
:10325000F0820F90CF91DF911F910F91FF90DF903F
:10326000CF90BF90AF9008956F927F928F929F9270
:10327000AF92BF92CF92DF92FF920F931F93DF9393
:10328000CF93CDB7DEB728970FB6F894DEBF0FBE49
:10329000CDBF9C010097B9F043E08E010B5F1F4F3B
:1032A000F801E40FF11DC9016AE070E00E949D3051
:1032B0008083C9016AE070E00E949D309B0141500B
:1032C0006115710569F7FF2400E610E06E010894AE
:1032D000C11CD11C32E0A32EB12CAC0EBD1E23E0CC
:1032E000822E912C8C0E9D1E94E0692E712C6C0EFA
:1032F0007D1EF394C801B6010E94121699818D813A
:10330000981781F5C8010196B5010E9412169A819D
:103310008E81981739F5C8010296B4010E941216E1
:103320009B818F819817F1F4C8010396B3010E9425
:1033300012169C8188859817A9F48F2D28960FB6B0
:10334000F894DEBF0FBECDBFCF91DF911F910F91DB
:10335000FF90DF90CF90BF90AF909F908F907F9025
:103360006F900895085F1F4F88E1F81611F68BEBF8
:10337000F82EE3CFCF92DF92EF92FF921F93DF936D
:10338000CF930F92CDB7DEB76C01198280E090E049
:103390007E010894E11CF11CB7010E94121610E096
:1033A00089818F3F09F011E088E090E0B7010E9429
:1033B000121689818F3F09F01F5F80E190E0B7010D
:1033C0000E94121689818F3F09F01F5F88E190E00B
:1033D000B7010E94121689818F3F09F01F5F80E2BA
:1033E00090E0B7010E94121689818F3F09F01F5F9C
:1033F00088E290E0B7010E94121689818F3F09F0A0
:103400001F5F80E390E0B7010E94121689818F3F11
:1034100009F01F5F88E390E0B7010E9412168981CE
:103420008F3F09F01F5F80E490E0B7010E94121601
:1034300089818F3F09F01F5F88E490E0B7010E9407
:10344000121689818F3F09F01F5F80E590E0B70178
:103450000E94121689818F3F09F01F5F88E590E076
:10346000B7010E94121689818F3F09F01F5FF60194
:1034700010830F90CF91DF911F91FF90EF90DF901D
:10348000CF9008956F927F928F929F92AF92BF924A
:10349000CF92DF92FF920F931F93DF93CF93CDB71D
:1034A000DEB728970FB6F894DEBF0FBECDBF9C01E4
:1034B0000097B9F043E08E010B5F1F4FF801E40F56
:1034C000F11DC9016AE070E00E949D308083C9014E
:1034D0006AE070E00E949D309B01415061157105CA
:1034E00069F7FF2400E010E06E010894C11CD11CB4
:1034F00072E0A72EB12CAC0EBD1E63E0862E912C7F
:103500008C0E9D1E54E0652E712C6C0E7D1EF39466
:10351000C801B6010E94121699818D81981781F514
:10352000C8010196B5010E9412169A818E819817E2
:1035300039F5C8010296B4010E9412169B818F8151
:103540009817F1F4C8010396B3010E9412169C81EA
:1035500088859817A9F48F2D28960FB6F894DEBFAA
:103560000FBECDBFCF91DF911F910F91FF90DF90E4
:10357000CF90BF90AF909F908F907F906F90089565
:10358000085F1F4F8CE0F81611F64BEBF42EE3CFDB
:10359000EF92FF920F931F93CF93DF9380E090E021
:1035A000C0E0D0E08C010F5F1F4F6FEF0E945416F8
:1035B00078010894E11CF11CC8016FEF0E945416B9
:1035C00087010F5F1F4FC7016FEF0E9454167801EC
:1035D0000894E11CF11CC8016FEF0E94541687018A
:1035E0000F5F1F4FC7016FEF0E94541678010894B8
:1035F000E11CF11CC8016FEF0E945416C7016FEF68
:103600000E945416C70101966FEF0E945416289627
:10361000CE0124E0C030D20729F6DF91CF911F916F
:103620000F91FF90EF900895EF92FF920F931F93E9
:10363000CF93DF9380E690E0C0E6D0E08C010F5F8F
:103640001F4F6FEF0E94541678010894E11CF11C83
:10365000C8016FEF0E94541687010F5F1F4FC7010B
:103660006FEF0E94541678010894E11CF11CC80108
:103670006FEF0E94541687010F5F1F4FC7016FEF56
:103680000E94541678010894E11CF11CC8016FEFE8
:103690000E945416C7016FEF0E945416C70101968D
:1036A0006FEF0E9454162896CE0121E0C032D20757
:1036B00029F6DF91CF911F910F91FF90EF90089520
:1036C0004F925F926F927F928F929F92AF92BF9232
:1036D000CF92DF92EF92FF920F931F93DF93CF93DE
:1036E000CDB7DEB761970FB6F894DEBF0FBECDBF82
:1036F0009C010097B9F043E08E010A5F1F4FF8016B
:10370000E40FF11DC9016AE070E00E949D308083E2
:10371000C9016AE070E00E949D309B014150611533
:10372000710569F73AE0432E512C4C0E5D1E88E07E
:10373000F20111928A95E9F7EE2400E010E022E010
:10374000A22EB12CAC0EBD1E93E0892E912C8C0EB6
:103750009D1E82E0C82ED12CCA0CDB1CB5E06B2E5E
:10376000712C6C0E7D1EE394C801B5010E941216E7
:103770009A818E81981709F038C1C8010196B40169
:103780000E9412169B818F81981709F02EC1C801E3
:103790000296B6010E9412169C818885981709F03E
:1037A00024C1C8010396B3010E9412169D81898528
:1037B000981709F01AC1198280E090E08E010F5F1E
:1037C0001F4FB8010E941216FF2489818F3F11F00C
:1037D000FF24F39488E090E0B8010E9412168981DA
:1037E0008F3F09F0F39480E190E0B8010E94121637
:1037F00089818F3F09F0F39488E190E0B8010E943D
:10380000121689818F3F09F0F39480E290E0B801AD
:103810000E94121689818F3F09F0F39488E290E0AC
:10382000B8010E94121689818F3F09F0F39480E35A
:1038300090E0B8010E94121689818F3F09F0F3943D
:1038400088E390E0B8010E94121689818F3F09F049
:10385000F39480E490E0B8010E94121689818F3FB2
:1038600009F0F39488E490E0B8010E94121689816F
:103870008F3F09F0F39480E590E0B8010E941216A2
:1038800089818F3F09F0F39488E590E0B8010E94A8
:10389000121689818F3F09F0F3948E2D81508C3060
:1038A00008F0D3C0CF2CDD24CC0CDD1CCC0CDD1CEF
:1038B000CC0CDD1C860108501040EF1409F49EC0AA
:1038C000C801B2010E941216C8016FEF0E9454167F
:1038D000860107501040C801BE01655F7F4F0E94FE
:1038E0001216C8016FEF0E94541686010650104050
:1038F000C801BE01645F7F4F0E941216C8016FEFBE
:103900000E945416860105501040C801BE01635F35
:103910007F4F0E941216C8016FEF0E945416860155
:1039200004501040C801BE01625F7F4F0E94121612
:10393000C8016FEF0E945416860103501040C80161
:10394000BE01615F7F4F0E941216C8016FEF0E9497
:103950005416860102501040C801BE01605F7F4FBF
:103960000E941216C8016FEF0E9454168601015082
:103970001040C801BE016F5E7F4F0E941216C80141
:103980006FEF0E9454160E2D10E0000F111F000F54
:10399000111F000F111FC80108976A850E94541655
:1039A000C80107976B850E945416C80106976C855D
:1039B0000E945416C80105976D850E945416C801CF
:1039C00004976E850E945416C80103976F850E9464
:1039D0005416C801029768890E945416C8010197BD
:1039E00069890E94541682E031C0085F1F4FFCE0D5
:1039F000EF1609F0B8CEABEBEA2EDDCEC8016FEFC3
:103A00000E945416C60107976FEF0E945416C60114
:103A100006976FEF0E945416C60105976FEF0E943C
:103A20005416C60104976FEF0E945416C6010397FF
:103A30006FEF0E945416C60102976FEF0E94541652
:103A4000C60101976FEF0E9454168BEB61960FB67B
:103A5000F894DEBF0FBECDBFCF91DF911F910F91C4
:103A6000FF90EF90DF90CF90BF90AF909F908F909E
:103A70007F906F905F904F9008952F923F924F925A
:103A80005F926F927F928F929F92AF92BF92CF92EE
:103A9000DF92EF92FF920F931F93DF93CF93CDB7F7
:103AA000DEB729970FB6F894DEBF0FBECDBF4C012D
:103AB0001B010097C1F09C0143E08E010A5F1F4F7C
:103AC000F801E40FF11DC9016AE070E00E949D3029
:103AD0008083C9016AE070E00E949D309B014150E3
:103AE0006115710569F7CC2400E010E0A2E04A2ED0
:103AF000512C4C0E5D1EF3E0AF2EB12CAC0EBD1E52
:103B0000E2E0EE2EF12CE40CF51C75E0672E712C32
:103B10006C0E7D1EC394C801B2010E9412169A81D8
:103B20008E81981709F0BCC0C8010196B5010E94AA
:103B300012169B818F81981709F0B2C0C8010296B6
:103B4000B7010E9412169C818885981709F0A8C0B9
:103B5000C8010396B3010E9412169D8189859817AA
:103B600009F09EC0198280E090E08E010F5F1F4F28
:103B7000B8010E941216BB2489818F3F11F0BB242B
:103B8000B39488E090E0B8010E94121689818F3FBB
:103B900009F0B39480E190E0B8010E941216898187
:103BA0008F3F09F0B39488E190E0B8010E941216AB
:103BB00089818F3F09F0B39480E290E0B8010E94C0
:103BC000121689818F3F09F0B39488E290E0B80122
:103BD0000E94121689818F3F09F0B39480E390E030
:103BE000B8010E94121689818F3F09F0B39488E3CF
:103BF00090E0B8010E94121689818F3F09F0B394BA
:103C000080E490E0B8010E94121689818F3F09F08C
:103C1000B39488E490E0B8010E94121689818F3F26
:103C200009F0B39480E590E0B8010E9412168981F2
:103C30008F3F09F0B39488E590E0B8010E94121616
:103C400089818F3F21F0B3948CE0B81691F1C401C3
:103C5000885E93408852934270F5C101885E93401C
:103C60008852934240F58BEBC81639F18CEC2996BB
:103C70000FB6F894DEBF0FBECDBFCF91DF911F917D
:103C80000F91FF90EF90DF90CF90BF90AF909F90FB
:103C90008F907F906F905F904F903F902F900895FE
:103CA000085F1F4F2CE0C21609F034CF6BEBC62E15
:103CB00059CF8EEDDCCF8FEFDACF81149104B9F0BC
:103CC00043E08E010A5F1F4FF801E40FF11DC401AC
:103CD0006AE070E00E949D308083C4016AE070E079
:103CE0000E949D304B0141506115710569F7211407
:103CF0003104A1F043E0F201E40FF11DC1016AE0DB
:103D000070E00E949D308083C1016AE070E00E94F3
:103D10009D301B0141506115710569F70B2D10E0B5
:103D2000000F111F000F111F000F111F78010894C1
:103D3000E11CF11CC8016E810E94541667010894B1
:103D4000C11CD11CC7016F810E945416C601688531
:103D50000E945416C601019669850E945416C80136
:103D600004966A810E94541646E0E42EF12CE00E7F
:103D7000F11E0B5F1F4FC8016B810E945416C701D3
:103D80006C810E945416C80102966D810E945416DF
:103D90008B2D8F5F6CCF4F925F926F927F928F923D
:103DA0009F92AF92BF92DF92EF92FF920F931F9379
:103DB000DF93CF93CDB7DEB760970FB6F894DEBF31
:103DC0000FBECDBF9C017B010097B9F043E08E018F
:103DD000035F1F4FF801E40FF11DC9016AE070E0B5
:103DE0000E949D308083C9016AE070E00E949D308E
:103DF0009B0141506115710569F7DD2400E010E079
:103E000039E0A32EB12CAC0EBD1E2AE0822E912CDF
:103E10008C0E9D1E9BE0692E712C6C0E7D1E8CE01D
:103E2000482E512C4C0E5D1ED394C801B5010E9442
:103E3000121699858D85981709F089C0C8010196D9
:103E4000B4010E9412169A858E85981709F07FC0DA
:103E5000C8010296B3010E9412169B858F859817A0
:103E600009F075C0C8010396B2010E9412169C8524
:103E70008889981709F06BC0E114F104B9F043E0A8
:103E80008E010F5F1F4FF801E40FF11DC7016AE0BB
:103E900070E00E949D308083C7016AE070E00E945C
:103EA0009D307B0141506115710569F78D2D815061
:103EB0008C3008F055C00D2D10E0000F111F000FC1
:103EC000111F000F111FC8010497BE016B5F7F4FC8
:103ED0000E9412169D818981981709F043C0C8017C
:103EE0000397BE016A5F7F4F0E9412169E818A81EE
:103EF0009817C1F5C8010297BE01695F7F4F0E9404
:103F000012169F818B81981769F5C8010197BE0130
:103F1000685F7F4F0E94121698858C81981711F563
:103F20008DE460960FB6F894DEBF0FBECDBFCF9183
:103F3000DF911F910F91FF90EF90DF90BF90AF90B6
:103F40009F908F907F906F905F904F900895085F43
:103F50001F4F8CE0D81609F067CF1BEBD12E8CCF0A
:103F60008BEBDFCF88E5DDCF2F923F924F925F92B0
:103F70006F927F928F929F92AF92BF92CF92DF9279
:103F8000EF92FF920F931F93DF93CF93CDB7DEB7DE
:103F900029970FB6F894DEBF0FBECDBF4C011B01B1
:103FA0000097C1F09C0143E08E010A5F1F4FF801AA
:103FB000E40FF11DC9016AE070E00E949D3080832A
:103FC000C9016AE070E00E949D309B01415061157B
:103FD000710569F7CC2400E610E0A2E04A2E512CCE
:103FE0004C0E5D1EF3E0AF2EB12CAC0EBD1EE2E018
:103FF000EE2EF12CE40CF51C75E0672E712C6C0E86
:104000007D1EC394C801B2010E9412169A818E814E
:10401000981709F060C0C8010196B5010E941216F8
:104020009B818F81981709F056C0C8010296B7018D
:104030000E9412169C818885981709F04CC0C8010F
:104040000396B3010E9412169D818985981709F085
:1040500042C0198200E610E0BB247E010894E11CF6
:10406000F11CC801B7010E94121689818F3F09F027
:10407000B394085F1F4F81E00032180791F727E1E2
:104080002B15A0F1C401885E93408852934260F5DD
:10409000C101885E93408852934230F58BEBC8167D
:1040A00039F18CEC29960FB6F894DEBF0FBECDBF68
:1040B000CF91DF911F910F91FF90EF90DF90CF9004
:1040C000BF90AF909F908F907F906F905F904F9038
:1040D0003F902F900895085F1F4F28E1C21609F006
:1040E00090CF6BEBC62EB5CF8FEFDCCF8EEDDACF56
:1040F00081149104B9F043E08E010A5F1F4FF8016B
:10410000E40FF11DC4016AE070E00E949D308083DD
:10411000C4016AE070E00E949D304B01415061157E
:10412000710569F721143104A1F043E0F201E40FB5
:10413000F11DC1016AE070E00E949D308083C101E1
:104140006AE070E00E949D301B01415061157105CD
:1041500069F70B2D10E0045F1F4F000F111F000FB8
:10416000111F000F111F78010894E11CF11CC801F8
:104170006E810E94541667010894C11CD11CC701AE
:104180006F810E945416C60168850E945416C601AC
:10419000019669850E945416C80104966A810E949E
:1041A000541646E0E42EF12CE00EF11E0B5F1F4F7B
:1041B000C8016B810E945416C7016C810E9454167D
:1041C000C80102966D810E9454168B2D8F5F6ACFB5
:1041D0004F925F926F927F928F929F92AF92BF9217
:1041E000DF92EF92FF920F931F93DF93CF93CDB7A0
:1041F000DEB760970FB6F894DEBF0FBECDBF9C014F
:104200007B010097B9F043E08E01035F1F4FF80177
:10421000E40FF11DC9016AE070E00E949D308083C7
:10422000C9016AE070E00E949D309B014150611518
:10423000710569F7DD2400E610E039E0A32EB12C0A
:10424000AC0EBD1E2AE0822E912C8C0E9D1E9BE092
:10425000692E712C6C0E7D1E8CE0482E512C4C0E5C
:104260005D1ED394C801B5010E94121699858D85F3
:10427000981709F08CC0C8010196B4010E9412166B
:104280009A858E85981709F082C0C8010296B301FD
:104290000E9412169B858F85981709F078C0C80177
:1042A0000396B2010E9412169C858889981709F01E
:1042B0006EC0E114F104B9F043E08E010F5F1F4FAF
:1042C000F801E40FF11DC7016AE070E00E949D3023
:1042D0008083C7016AE070E00E949D307B014150FD
:1042E0006115710569F78D2D8150883108F058C02E
:1042F0000D2D10E0000F111F000F111F000F111FD7
:10430000045A1F4FC801BE016B5F7F4F0E941216F7
:104310009D818981981709F045C00F5F1F4FC80123
:10432000BE016A5F7F4F0E9412169E818A81981794
:10433000C9F50F5F1F4FC801BE01695F7F4F0E9423
:1043400012169F818B81981769F5C8010196BE01ED
:10435000685F7F4F0E94121698858C81981711F51F
:104360008DE460960FB6F894DEBF0FBECDBFCF913F
:10437000DF911F910F91FF90EF90DF90BF90AF9072
:104380009F908F907F906F905F904F900895085FFF
:104390001F4F88E1D81609F064CF1BEBD12E89CFCF
:1043A0008BEBDFCF88E5DDCF4F925F926F927F92EC
:1043B0008F929F92AF92BF92CF92DF92EF92FF9235
:1043C0000F931F93DF93CF93CDB7DEB761970FB6EF
:1043D000F894DEBF0FBECDBF9C010097B9F043E05B
:1043E0008E010A5F1F4FF801E40FF11DC9016AE059
:1043F00070E00E949D308083C9016AE070E00E94F5
:104400009D309B0141506115710569F7BAE04B2E53
:10441000512C4C0E5D1E88E0F20111928A95E9F74D
:10442000EE2400E610E0A2E0AA2EB12CAC0EBD1ED8
:10443000F3E08F2E912C8C0E9D1EE2E0CE2ED12C1F
:10444000CA0CDB1C75E0672E712C6C0E7D1EE3948C
:10445000C801B5010E9412169A818E81981709F041
:10446000F1C0C8010196B4010E9412169B818F8190
:10447000981709F0E7C0C8010296B6010E9412160B
:104480009C818885981709F0DDC0C8010396B301A7
:104490000E9412169D818985981709F0D3C0198250
:1044A00000E610E0FF246E010894C11CD11CC80175
:1044B000B6010E94121689818F3F09F0F394085FBC
:1044C0001F4F81E00032180791F78E2D81508831FF
:1044D00008F0C1C00F2D10E0000F111F000F111FB9
:1044E000000F111F085A1F4FEF1409F4B6C0C8017E
:1044F000B2010E941216C8016FEF0E9454160F5F9E
:104500001F4FC801BE01655F7F4F0E941216C80190
:104510006FEF0E9454160F5F1F4FC801BE01645F0A
:104520007F4F0E941216C8016FEF0E9454160F5F52
:104530001F4FC801BE01635F7F4F0E941216C80162
:104540006FEF0E9454160F5F1F4FC801BE01625FDC
:104550007F4F0E941216C8016FEF0E9454160F5F22
:104560001F4FC801BE01615F7F4F0E941216C80134
:104570006FEF0E9454160F5F1F4FC801BE01605FAE
:104580007F4F0E941216C8016FEF0E9454160F5FF2
:104590001F4FC801BE016F5E7F4F0E941216C801F7
:1045A0006FEF0E9454160E2D10E0000F111F000F28
:1045B000111F000F111F085A1F4FC8016A850E9462
:1045C00054160F5F1F4FC8016B850E9454160F5F72
:1045D0001F4FC8016C850E9454160F5F1F4FC80102
:1045E0006D850E9454160F5F1F4FC8016E850E9493
:1045F00054160F5F1F4FC8016F850E9454160F5F3E
:104600001F4FC80168890E945416C8010196698924
:104610000E94541682E061960FB6F894DEBF0FBE7A
:10462000CDBFCF91DF911F910F91FF90EF90DF9061
:10463000CF90BF90AF909F908F907F906F905F9042
:104640004F900895085F1F4FF8E1EF1609F0FFCE75
:104650006BEBE62E24CF8BEBDECFC8016FEF0E9411
:1046600054160F5F1F4FC8016FEF0E9454160F5F63
:104670001F4FC8016FEF0E9454160F5F1F4FC801F4
:104680006FEF0E9454160F5F1F4FC8016FEF0E941B
:1046900054160F5F1F4FC8016FEF0E9454160F5F33
:1046A0001F4FC8016FEF0E945416C80101966FEFAB
:1046B0000E94541682E0AFCF8F929F92AF92BF922A
:1046C000CF92DF92EF92FF920F931F93DF93CF93DE
:1046D00000D000D000D0CDB7DEB74C0119821A82CD
:1046E0001B821C820E947C0FBB246E010894C11C9B
:1046F000D11C7AE0A72E68ECE62EF12C0E947C0FEC
:1047000089E690E00E94F81081E060E00E94B31119
:1047100010E004C011501F5F1430C0F4C601810FB7
:10472000911D9E838D830E94B513ED81FE810081D2
:104730000E3409F44EC00A3068F7602F70E080E054
:1047400090E00E9478101F5F143040F389818A9DA9
:10475000C00111242A81820F911D9C01220F331F59
:10476000220F331F220F331F880F991F280F391F65
:104770008B81280F311DB901660F771F660F771FD8
:10478000660F771F220F331F620F731F8C81680F14
:10479000711DC4010E94E8208D3409F454C00E94A8
:1047A0007C0F81E060E00E94B31186E890E00E94F7
:1047B000F810B394F3E0BF16C1F020E030E0C70179
:1047C0000197F1F72F5F3F4F87E220313807B9F7A4
:1047D00095CF012F015081E0602F0E94F31181E0FD
:1047E000602F0E94B311125096CF81E060E041E04B
:1047F0000E94C51681E062E041E00E948A0C81E0DF
:1048000064E040E00E948A0C82E40E941D0B8093C9
:104810005C0381E064E041E00E948A0C81E064E096
:1048200040E00E948A0C8EE40E941D0B80935C0382
:1048300081E064E041E00E948A0C81E062E040E0B7
:104840000E948A0CBACF0E947C0F81E060E00E9437
:10485000B3118AE790E00E94F81081E060E040E048
:104860000E94C51681E062E041E00E948A0C81E06E
:1048700064E040E00E948A0C82E40E941D0B809359
:104880005C0381E064E041E00E948A0C81E064E026
:1048900040E00E948A0C86E40E941D0B80935C031A
:1048A00081E064E041E00E948A0C81E062E040E047
:1048B0000E948A0C26960FB6F894DEBF0FBECDBFBD
:1048C000CF91DF911F910F91FF90EF90DF90CF90EC
:1048D000BF90AF909F908F900895AF92BF92CF926C
:1048E000DF92EF92FF920F931F93DF93CF9300D04D
:1048F00000D000D0CDB7DEB719821A821B821C828D
:104900000E947C0FBB246E010894C11CD11C0AE0DC
:10491000A02E18ECE12EF12C0E947C0F85E990E08E
:104920000E94F81081E060E00E94B31110E004C022
:1049300011501F5F1430C0F4C601810F911D9E837A
:104940008D830E94B513ED81FE8100810E3409F440
:104950004EC00A3068F7602F70E080E090E00E945F
:1049600078101F5F143040F389818A9DC0011124A3
:104970002A81820F911D9C01220F331F220F331FAA
:10498000220F331F880F991F280F391F8B81280F83
:10499000311D8901000F111F000F111F000F111F82
:1049A000220F331F020F131F8C81080F111DC80126
:1049B0000E9434198B3B09F054C00E947C0F81E0A7
:1049C00060E00E94B31185EA90E00E94F810B39471
:1049D000F3E0BF16C1F020E030E0C7010197F1F726
:1049E0002F5F3F4F87E220313807B9F795CF012F6E
:1049F000015081E0602F0E94F31181E0602F0E943E
:104A0000B311125096CF81E060E041E00E94C516DC
:104A100081E062E041E00E948A0C81E064E040E0D5
:104A20000E948A0C82E40E941D0B80935C0381E04B
:104A300064E041E00E948A0C81E064E040E00E9472
:104A40008A0C8EE40E941D0B80935C0381E064E07D
:104A500041E00E948A0C81E062E040E00E948A0C02
:104A6000BACF0E947C0F81E060E00E94B31181E028
:104A700060E040E00E94C51681E062E041E00E94F3
:104A80008A0C81E064E040E00E948A0C82E40E948B
:104A90001D0B80935C0381E064E041E00E948A0C7E
:104AA00081E064E040E00E948A0C86E40E941D0BD5
:104AB00080935C0381E064E041E00E948A0C81E025
:104AC00062E040E00E948A0CC80126960FB6F89476
:104AD000DEBF0FBECDBFCF91DF911F910F91FF9031
:104AE000EF90DF90CF90BF90AF9008950E94851512
:104AF0000E94541108951F930E94560E80936403E0
:104B000080915D038823C9F4809164038D31B8F4EA
:104B100080916403853128F480915B03882309F434
:104B200048C080916403863140F0809164038C31E9
:104B300020F41092660310925B031F9108958091F8
:104B40006603882329F711E010936603109363032B
:104B500010925B0387E00E94AC161093590381E02A
:104B600062E041E00E948A0C81E064E040E00E9443
:104B70008A0C86E40E941D0B80935C0381E064E054
:104B800041E00E948A0C81E064E040E00E948A0CCF
:104B90008EE40E941D0B80935C0381E064E041E0A1
:104BA0000E948A0C81E062E040E00E948A0C1F9122
:104BB000089511E010935B03109263031092660353
:104BC0000E9493161093590381E062E041E00E9435
:104BD0008A0C81E064E040E00E948A0C86E40E9436
:104BE0001D0B80935C0381E064E041E00E948A0C2D
:104BF00081E064E040E00E948A0C86E4CACF0E9413
:104C00007C0F80E060E00E94B311809165038130E9
:104C100009F4C6C080916103813009F481C080919C
:104C20005F03813009F46EC080916803813009F41C
:104C30005BC080915E03813009F447C080916303BB
:104C4000813009F180916703882379F180916703AE
:104C5000813009F4AFC080916703873048F083E06A
:104C600060E00E94B31181E191E00E94F810089584
:104C700081E060E00E94B3118AE091E00E94F810A8
:104C800010926703ECCF80916703882309F07EC000
:104C900087EE90E00E94F810809167038F5F809309
:104CA000670380916703882389F660E00E94B3114F
:104CB00080EF90E00E94F81081E060E00E94B31164
:104CC0008CEF90E00E94F810CACF80916703882390
:104CD00009F052C08BED90E00E94F81080916703BC
:104CE0008F5F80936703AACF809167038823D1F5F4
:104CF0008FEC90E00E94F810809167038F5F8093A3
:104D0000670397CF80916703882311F583EC90E0C8
:104D10000E94F810809167038F5F8093670384CFB0
:104D200080916703882351F487EB90E00E94F8108C
:104D3000809167038F5F8093670371CF80EC90E071
:104D40000E94F810809167038F5F8093670367CF9D
:104D50008CEC90E00E94F810809167038F5F809345
:104D6000670362CF88ED90E00E94F810809167039E
:104D70008F5F809367035DCF84EE90E00E94F81010
:104D8000809167038F5F8093670358CF8BEE90E02D
:104D90000E94F810809167038F5F8093670352CF62
:104DA0008EEA90E00E94F810809167038F5F8093F5
:104DB000670330CF60E00E94B31184E091E00E946D
:104DC000F810109267034BCFFF920F931F93CF936E
:104DD000DF93C8ECD0E080916003882329F48091B0
:104DE0006203882309F44DC080916003882309F48D
:104DF00072C00E947C0F80E060E00E94B31186E2E6
:104E000091E00E94F81081E060E00E94B31180E31D
:104E100091E00E94F81083E060E00E94B31181E10C
:104E200091E00E94F81080E693E00E949614809131
:104E30006003813001F1809160038230F9F080914C
:104E400060038823F1F00E947C0F80E060E00E9404
:104E5000B3118EE391E00E94F81020E030E0CE0123
:104E60000197F1F72F5F3F4F87E220313807B9F7FD
:104E70000E94E426B0CF0E94952BADCF0E94D92787
:104E8000AACFFF24F394F09262030E947C0F80E08B
:104E900060E00E94B3118AE191E00E94F8108EE276
:104EA0000E94751000E117E2C8010197F1F78EE248
:104EB0000E947510C8010197F1F78EE20E947510EB
:104EC000C8010197F1F78EE20E947510C8010197A1
:104ED000F1F7F0925903DF91CF911F910F91FF905D
:104EE0000895EF92FF920F931F93CF93DF93C8EC37
:104EF000D0E00E94560EE82E0E947C0F8BE491E0D9
:104F00000E94F810FF2400E010E0C801B7010E94E1
:104F1000781082E060E00E94B31181E191E00E948C
:104F2000F81082E06AE00E94B3118BE591E00E94E4
:104F3000F81083E060E00E94B31182E691E00E94E5
:104F4000F81080E693E00E94961480916003883008
:104F5000F1F080916003873019F18091600388231C
:104F6000C1F00E947C0F80E060E00E94B3118EE3EC
:104F700091E00E94F81020E030E0CE010197F1F7B7
:104F80002F5F3F4F87E220313807B9F7B2CF0E9439
:104F9000E426DF91CF911F910F91FF90EF9008953C
:104FA0000E94D927DF91CF911F910F91FF90EF9031
:104FB0000895CF93DF93C8ECD0E00E947C0F80E08F
:104FC00060E00E94B31189E691E00E94F81081E050
:104FD00060E00E94B31187E791E00E94F81082E040
:104FE00060E00E94B31181E191E00E94F81082E03C
:104FF0006AE00E94B3118BE591E00E94F81083E013
:1050000060E00E94B31182E691E00E94F81080E611
:1050100093E00E94961480916003813081F1809129
:105020006003823039F1809160038830F1F0809123
:1050300060038730D1F0809160038823C1F00E9423
:105040007C0F80E060E00E94B3118EE391E00E944B
:10505000F81020E030E0CE010197F1F72F5F3F4FCD
:1050600087E220313807B9F7A8CF0E94E426DF9104
:10507000CF9108950E944228DF91CF9108950E9418
:105080007127F5CF1F93CF93DF93C8ECD0E00E9438
:105090007C0F80E060E00E94B3118DE791E00E94F8
:1050A000F81080E066E00E94B31182E891E00E946F
:1050B000F81080E06CE00E94B31188E891E00E9453
:1050C000F81081E060E00E94B31181E991E00E9454
:1050D000F81082E060E00E94B31181E191E00E944B
:1050E000F81082E06AE00E94B3118BE591E00E9423
:1050F000F81083E060E00E94B31182E691E00E9424
:10510000F81080E693E00E9496141091600311302D
:10511000A1F180916003823009F462C08091600344
:10512000833009F47EC080916003843009F49CC010
:1051300080916003883009F49DC0809160038730BE
:1051400009F49EC080916003882309F445C00E9441
:105150007C0F80E060E00E94B3118EE391E00E943A
:10516000F81020E030E0CE010197F1F72F5F3F4FBC
:1051700087E220313807B9F78ACF87E00E94AC1662
:105180001093630310935B0381E062E041E00E94AF
:105190008A0C81E064E040E00E948A0C86E40E9470
:1051A0001D0B80935C0381E064E041E00E948A0C67
:1051B00081E064E040E00E948A0C8EE40E941D0BB6
:1051C00080935C0381E064E041E00E948A0C81E00E
:1051D00062E040E00E948A0CDF91CF911F91089518
:1051E0000E9493161092630381E08093660362E04D
:1051F00041E00E948A0C81E064E040E00E948A0C59
:1052000086E40E941D0B80935C0381E064E041E032
:105210000E948A0C81E064E040E00E948A0C86E4EF
:10522000CDCF80916303882389F18091630381301E
:10523000A1F181E062E041E00E948A0C81E064E03B
:1052400040E00E948A0C86E40E941D0B80935C0360
:1052500081E064E041E00E948A0C81E064E040E08B
:105260000E948A0C84E5AACF0E945229DF91CF9137
:105270001F9108950E94E426DF91CF911F91089518
:105280000E94D927DF91CF911F91089587E00E9456
:10529000AC1681E080936303CCCF0E9493161092EA
:1052A0006303C7CFCF93DF93C8ECD0E00E947C0F9D
:1052B00080E060E00E94B31183EA91E00E94F81060
:1052C00081E060E00E94B31188EB91E00E94F81049
:1052D00082E060E00E94B31181E191E00E94F81049
:1052E00082E06AE00E94B3118BE591E00E94F81021
:1052F00083E060E00E94B31182E691E00E94F81022
:1053000080E693E00E94961480916003813059F109
:1053100080916003823079F180916003882301F1EC
:10532000809160038730D1F080916003883001F173
:105330000E947C0F80E060E00E94B3118EE391E058
:105340000E94F81020E030E0CE010197F1F72F5FC6
:105350003F4F87E220313807B9F7A8CF0E94422893
:10536000DF91CF9108950E94222ADF91CF91089575
:105370000E94E426F5CF0E94BE29F2CF1F93CF935F
:10538000DF9311E0C8ECD0E010935D030E947C0F26
:1053900080E060E00E94B31186EC91E00E94F8107A
:1053A00081E060E00E94B31189ED91E00E94F81065
:1053B00082E060E00E94B31181E191E00E94F81068
:1053C00082E06AE00E94B3118BE591E00E94F81040
:1053D00083E060E00E94B31182E691E00E94F81041
:1053E00080E693E00E94961480916003882301F187
:1053F000809160038730D1F0809160038830E1F0C4
:105400000E947C0F80E060E00E94B3118EE391E087
:105410000E94F81020E030E0CE010197F1F72F5FF5
:105420003F4F87E220313807B9F7AECF0E945229AB
:10543000DF91CF911F9108950E94E426DF91CF91D3
:105440001F910895CF93DF93C8ECD0E010925D03D5
:105450001092660310925B030E947C0F80E060E074
:105460000E94B31186EC91E00E94F81081E060E0A8
:105470000E94B31185EE91E00E94F81082E060E096
:105480000E94B31181E191E00E94F81082E06AE08D
:105490000E94B3118BE591E00E94F81083E060E078
:1054A0000E94B31182E691E00E94F81080E693E03A
:1054B0000E94961480916003882301F1809160031B
:1054C0008730D1F0809160038830D9F00E947C0F42
:1054D00080E060E00E94B3118EE391E00E94F8103A
:1054E00020E030E0CE010197F1F72F5F3F4F87E2D8
:1054F00020313807B9F7AACF0E945229DF91CF9106
:1055000008950E94E426DF91CF9108951F93CF93D1
:10551000DF93C8ECD0E00E947C0F80E060E00E9446
:10552000B3118DE791E00E94F81080E06AE00E94DC
:10553000B31182E891E00E94F81081E060E00E94DF
:10554000B31188E891E00E94F81082E060E00E94C8
:10555000B31181E191E00E94F81082E06AE00E94BC
:10556000B3118BE591E00E94F81083E060E00E94A7
:10557000B31182E691E00E94F81080E693E00E9469
:10558000961410916003113099F18091600382307C
:1055900009F49BC080916003833009F462C080915C
:1055A00060038830F9F080916003873009F453C0BC
:1055B000809160038823C1F00E947C0F80E060E04E
:1055C0000E94B3118EE391E00E94F81020E030E0D9
:1055D000CE010197F1F72F5F3F4F87E22031380767
:1055E000B9F799CF0E94E426DF91CF911F910895DA
:1055F00080E064E041E00E94720E81E062E041E000
:105600000E948A0C81E064E040E00E948A0C82E300
:105610000E941D0B80935C0381E064E041E00E94E6
:105620008A0C81E064E040E00E948A0C8EE40E94D3
:105630001D0B80935C0381E064E041E00E948A0CD2
:1056400081E062E040E00E948A0C10936103DF91E8
:10565000CF911F9108950E94952BDF91CF911F91BB
:10566000089580E064E042E00E94720E81E062E012
:1056700041E00E948A0C81E064E040E00E948A0CD4
:1056800082E30E941D0B80935C0381E064E041E0B3
:105690000E948A0C81E064E040E00E948A0C84E56C
:1056A0000E941D0B80935C0381E064E041E00E9456
:1056B0008A0C81E062E040E00E948A0C80916103E4
:1056C00091E08927809361038FCF80E064E040E020
:1056D0000E94720E81E062E041E00E948A0C81E04B
:1056E00064E040E00E948A0C82E30E941D0B8093DC
:1056F0005C0381E064E041E00E948A0C81E064E0A8
:1057000040E00E948A0C86E40E941D0B80935C039B
:1057100081E064E041E00E948A0C81E062E040E0C8
:105720000E948A0C109261035FCFCF93DF93C8EC85
:10573000D0E00E947C0F80E060E00E94B3118AEF0D
:1057400091E00E94F81082E060E00E94B31181E1D4
:1057500091E00E94F81082E06AE00E94B3118BE5AC
:1057600091E00E94F81083E060E00E94B31182E6AD
:1057700091E00E94F81081E060E00E94B31180E6A1
:1057800093E00E94961480916003813091F18091A2
:105790006003823099F1809160038330A1F18091A0
:1057A00060038430A9F1809160038530B1F180916C
:1057B0006003873001F1809160038830E1F08091CF
:1057C00060038823C1F00E947C0F80E060E00E94AB
:1057D000B3118EE391E00E94F81020E030E0CE019A
:1057E0000197F1F72F5F3F4F87E220313807B9F774
:1057F000A0CF0E94122CDF91CF9108950E94862A9B
:10580000DF91CF9108950E943F2FDF91CF910895AE
:105810000E94302EDF91CF9108950E94212DDF91BB
:10582000CF9108951F93CF93DF93C8ECD0E00E94EF
:105830007C0F80E060E00E94B3118DE791E00E9450
:10584000F81080E06AE00E94B31182E891E00E94C3
:10585000F81081E060E00E94B31188E891E00E94B6
:10586000F81082E060E00E94B31181E191E00E94B3
:10587000F81082E06AE00E94B3118BE591E00E948B
:10588000F81083E060E00E94B31182E691E00E948C
:10589000F81080E693E00E94961410916003113096
:1058A00099F180916003823009F49BC0809160037C
:1058B000833009F462C0809160038830F9F08091F0
:1058C0006003873009F453C0809160038823C1F0DE
:1058D0000E947C0F80E060E00E94B3118EE391E0B3
:1058E0000E94F81020E030E0CE010197F1F72F5F21
:1058F0003F4F87E220313807B9F799CF0E94E4265D
:10590000DF91CF911F91089580E063E041E00E9414
:10591000720E1093650381E062E041E00E948A0C00
:1059200081E064E040E00E948A0C81E30E941D0B4C
:1059300080935C0381E064E041E00E948A0C81E096
:1059400064E040E00E948A0C8EE40E941D0B80936C
:105950005C0381E064E041E00E948A0C81E062E047
:1059600040E00E948A0CDF91CF911F9108950E9420
:10597000952BDF91CF911F91089580E063E042E085
:105980000E94720E81E062E041E00E948A0C81E098
:1059900064E040E00E948A0C81E30E941D0B80932A
:1059A0005C0381E064E041E00E948A0C81E064E0F5
:1059B00040E00E948A0C84E50E941D0B80935C03EA
:1059C00081E064E041E00E948A0C81E062E040E016
:1059D0000E948A0C8091650391E08927809365037A
:1059E0008FCF80E063E040E00E94720E81E062E0D1
:1059F00041E00E948A0C81E064E040E00E948A0C51
:105A000081E30E941D0B80935C0381E064E041E030
:105A10000E948A0C81E064E040E00E948A0C86E4E7
:105A20000E941D0B80935C0381E064E041E00E94D2
:105A30008A0C81E062E040E00E948A0C10926503CB
:105A40005FCF1F93CF93DF93C8ECD0E00E947C0F11
:105A500080E060E00E94B3118DE791E00E94F810B1
:105A600080E06AE00E94B31182E891E00E94F810A1
:105A700081E060E00E94B31188E891E00E94F81094
:105A800082E060E00E94B31181E191E00E94F81091
:105A900082E06AE00E94B3118BE591E00E94F81069
:105AA00083E060E00E94B31182E691E00E94F8106A
:105AB00080E693E00E94961410916003113099F1F2
:105AC00080916003823009F49BC080916003833031
:105AD00009F462C0809160038830F9F0809160031E
